:100000000C9486000C94AE000C94AE000C94AE00E0
:100010000C94AE000C94AE000C94AE000C94AE00A8
:100020000C94AE000C94AE000C94AE000C94AE0098
:100030000C94AE000C94AE000C94AE000C94AE0088
:100040000C94AE000C9445090C94AE000C948807F7
:100050000C9432050C94BA070C94AE000C94AE00CC
:100060000C947E040C94AE000C94AE000C94AE0084
:100070009C042105AB042105C104EF04F70421050C
:1000800007051905000000000009030001070A0028
:100090000000000000000000000000000000000060
:1000A000000004000000000102040840102080014C
:1000B0000210204080010204080804010204081014
:1000C0002040800102041020408004040404040441
:1000D00004040202020202020101010102020303FE
:1000E0000303030303030505050101010100003BB0
:1000F00000380035003200270000003A0037003495
:100100000031002600008F01EA07A30111241FBE61
:10011000CFEFD4E0DEBFCDBF11E0A0E0B1E0EAE177
:10012000F7E102C005900D92AE36B107D9F722E093
:10013000AEE6B1E001C01D92A63CB207E1F711E0C6
:10014000CAE0D1E004C02297FE010E94FC09C6303B
:10015000D107C9F70E9436090C94800B0C9400005B
:1001600080E791E00E94660461E070E080E791E042
:100170000E945A028CE791E00E9416042FE745E0A6
:1001800050E061E070E08CE791E00E944D0226E8CB
:1001900040E052EC61E070E08CE192E00E942607C2
:1001A00068E071E08CE192E00E946F082FEF45E07B
:1001B00050E062E070E08CE791E00E944D0240E088
:1001C00062E070E08CE791E00E94470240E064E06A
:1001D00070E08CE791E00E94470220E04AE050E0A6
:1001E00061E070E08CE791E00C944D02CF93DF93D7
:1001F000C1E0D0E080910601909107018C179D0726
:10020000A4F0BE0180E791E00E9453024AE050E072
:10021000682F8CE192E00E94DD0863E371E08CE1DD
:1002200092E00E9469082196E5CF65E371E08CE1D8
:1002300092E0DF91CF910C946F080F931F93CF93AF
:10024000DF9307E811E0C1E0D0E0809106019091D2
:1002500007018C179D075CF0F80140810E5F1F4F6E
:10026000BE018CE791E00E9447022196EECFDF911C
:10027000CF911F910F910895EF92FF920F931F93CB
:10028000CF93DF93CDB7DEB7EDB6FEB64091060152
:1002900050910701440F551F440F551FCA01019685
:1002A0002DB73EB7281B390B0FB6F8943EBF0FBED3
:1002B0002DBF0DB71EB70F5F1F4FB8018CE192E045
:1002C0000E941209F801E80FF11D1082B8018CE1BB
:1002D00092E00E94690867E371E0C8010E94450B43
:1002E00007E811E0009769F00E94270BF80181935D
:1002F00091938F0167E371E080E090E00E94450BED
:10030000F1CF0E941D010FB6F894FEBE0FBEEDBEE8
:10031000DF91CF911F910F91FF90EF900895609121
:1003200006017091070144E150E08CE791E00E94E2
:10033000EF0360910601709107014FEF5FEF80E7D7
:1003400091E00C943C0480E791E00E946A048CE701
:1003500091E00C942E048CE192E00E943206181673
:10036000190614F40C943C010C94F600FC018481F1
:1003700095810895DC0114962D913C911597621793
:10038000730740F41696ED91FC911797E60FF71F4F
:100390008081089580E00895DC0114962D913C91B0
:1003A00015976217730738F41696ED91FC9117971D
:1003B000E60FF71F408308950F931F93CF93DF93AA
:1003C000EC018B0187E491E09983888381E090E0E0
:1003D0000E94000A9B838A83C8010297811592407C
:1003E00078F4C8010E94000A9F838E83009751F021
:1003F000A80160E070E00E944A0B1D830C8302C0DC
:100400001D821C828A819B8101969B838A83DF9156
:10041000CF911F910F910895CF93DF93EC0187E463
:1004200091E099838883EA81FB8180818150808378
:1004300081110CC08E819F81009711F00E94980A53
:100440008A819B81DF91CF910C94980ADF91CF91A3
:100450000895CF93DF93FB01EC01AC81BD816A1756
:100460007B0790F44A175B0778F46417750760F40C
:10047000461B570B622F70E08E819F818E0F9F1F4E
:10048000DF91CF910C944A0BDF91CF9108956115C4
:10049000710511F00C94CC0108956115710511F0EE
:1004A0000C9429020895DC01ED91FC910280F38106
:1004B000E02D0994FC01718760870895FF920F93E6
:1004C0001F93CF93DF93EC01F62E442399F08A8596
:1004D0009B85039759F4E0910F02F0911002309739
:1004E00029F080910D0290910E02099581E090E033
:1004F0009B878A878A859B8582309105D1F08330DE
:10050000910539F1019709F056C0E881F98104801D
:10051000F581E02D4F2D60E070E0CE0109958885D2
:10052000998590930E0280930D0282E090E09B8764
:100530008A8780910D0290910E02019790930E028E
:1005400080930D02892BB9F583E090E09B878A8721
:1005500032C000910D0210910E02C80101969093D5
:100560000E0280930D02E881F9810190F081E02D67
:10057000CE0109950817190768F4E881F98160919F
:100580000D0270910E020480F581E02D4F2DCE01F9
:10059000099511C084E090E09B878A87E0910F0263
:1005A000F0911002309749F080910D0290910E0267
:1005B0000297099502C080E001C081E0DF91CF91F0
:1005C0001F910F91FF900895CF93DF93EC01442387
:1005D00051F081E090E09B838A831DAE1CAE1092A7
:1005E0000C0210920B0220910B0230910C02283366
:1005F000310508F064C08A819B8183309105D9F070
:1006000034F48130910551F0029761F05AC0853081
:100610009105C9F1FCF00697D1F153C06C8382E0DB
:1006200090E006C0613009F04AC06D8383E090E03D
:100630009B838A8346C06E8324E030E03B832A8319
:1006400070E063537F4F7DAF6CAF90930C0280934B
:100650000B0237C0A9014F5F5F4F50930C024093CC
:100660000B02FE01E20FF31F64838CAD9DAD860F7C
:10067000911D9DAF8CAF8E8190E04817590708F10E
:1006800085E090E0D5CF6DAF86E090E0D1CF6CAF44
:100690002CAD3DADC90160E070E00E94C409821735
:1006A000930759F487E090E09B838A83E881F9817E
:1006B0000680F781E02DCE0109951B821A8281E028
:1006C00001C080E0DF91CF910895CF93DF93FC01CB
:1006D000DB01442361F084E090E0938382831092F5
:1006E0000A021092090210920802109207028281F7
:1006F00093818530910531F18630910559F1049748
:1007000081F52091070230910802EF01C20FD31F3B
:100710004C818091090290910A02840F911D90935F
:100720000A0280930902C9010196909308028093FE
:1007300007024C93268130E08217930790F085E002
:1007400090E005C080910A028C9386E090E093834C
:10075000828307C0809109028C931382128281E008
:1007600001C080E0DF91CF9108952CB72E602CBF9F
:1007700082309105D9F074F40097A9F0019749F5FA
:100780001CBE83E080B9109212021092110280E91F
:1007900081B90AC08330910559F00497D1F413B898
:1007A00087E090E00FC01AB860E013C013B80AC029
:1007B0001CBE23E020B913B811B8909314028093A3
:1007C000130206C0909314028093130288E481B947
:1007D00061E08091150287FF0C94FC0508950F934A
:1007E0001F93CF93DF931F92CDB7DEB78C016F5F5E
:1007F0007F4F49830E94DC0181E0D80118968C93D9
:1008000018971696ED91FC911797108249814093A5
:10081000150261E0842F0E94C30580E090E00F90F4
:10082000DF91CF911F910F910C94B50390931B0210
:1008300080931A02FC018085882319F082E090E001
:1008400002C083E090E00C94B50380E090E00E9449
:10085000B50310921B0210921A020895CF93DF93F2
:10086000EC010E94250410921B0210921A02CE0184
:10087000DF91CF910C940C020F931F93CF93DF93D2
:100880001F92CDB7DEB78C016F5F7F4F49830E9407
:10089000DC012DE331E0F8013183208321E030E0F9
:1008A00031872087109319020093180249814093E1
:1008B000150261E0842F0E94C30580E090E00F9054
:1008C000DF91CF911F910F910C94B50381E090E0DF
:1008D0000C94B503CF93DF93EC018DE391E0998302
:1008E000888380E090E00E94B50310921902109274
:1008F0001802CE01DF91CF910C940C021F920F923F
:100900000FB60F9211242F933F934F935F936F93E2
:100910007F938F939F93AF93BF93EF93FF93E09158
:100920001302F09114023297EA30F10508F089C001
:10093000E85CFF4F0C94FA0912B81CBE89E080B93C
:1009400013B88091130290911402029709F079C0B4
:1009500084E090E069C012B81CBE83E080B981E0F9
:1009600090E09093060280930502E0911A02F091C4
:100970001B020680F781E02D808183B986E090E03C
:1009800053C080911A0290911B02DC01ED91FC9101
:100990000280F381E02D60910502709106029B01B7
:1009A0002F5F3F4F3093060220930502099583B9CC
:1009B00080910502909106028130924008F441C076
:1009C000E0911A02F0911B028085882319F082E0E1
:1009D00090E02AC083E090E00E94B50332C012B8D4
:1009E0001CBE89E080B913B888E090E01DC012B841
:1009F0001CBE83E080B941E063E270E080911602A2
:100A0000909117020E9465038AE090E00DC040E0DB
:100A100063E270E080911602909117020E946503D4
:100A2000882379F08BE090E0909314028093130276
:100A300008C081E090E00E94B50310921402109269
:100A40001302FF91EF91BF91AF919F918F917F9191
:100A50006F915F914F913F912F910F900FBE0F902B
:100A60001F9018951F920F920FB60F9211242F937B
:100A70003F934F935F936F937F938F939F93AF9326
:100A8000BF93EF93FF9382B163B184FF04C01498C6
:100A900081E090E019C0809111029091120285309E
:100AA000910549F18930910571F10197C9F580915E
:100AB000180290911902009761F061110AC041E09B
:100AC0000E945E0285E090E09093120280931102F2
:100AD00027C080911602909117020097E9F06C3CB4
:100AE000D9F4FC0126AD22FF17C041E00E94E402C8
:100AF00089E090E0E9CF40E08091180290911902DE
:100B00000E945E0207C040E0809116029091170299
:100B10000E94E402882321F0109212021092110226
:100B2000FF91EF91BF91AF919F918F917F916F91C5
:100B30005F914F913F912F910F900FBE0F901F909B
:100B40001895863091F028F4833041F0843049F0D4
:100B50000895893071F08A3081F008958FB58F77CC
:100B600002C08FB58F7D8FBD089587B58F7D87BDFE
:100B7000089580918B008F7703C080918B008F7DCB
:100B800080938B000895CF93DF9390E0FC01E955AB
:100B9000FF4F2491FC01E653FF4F8491882349F1D4
:100BA00090E0880F991FFC01E750FF4FA591B49189
:100BB00083519F4FFC01C591D4919FB7611108C02B
:100BC000F8948C91209582238C93888182230AC08B
:100BD000623051F4F8948C91322F309583238C93AA
:100BE0008881822B888304C0F8948C91822B8C930B
:100BF0009FBFDF91CF9108950F931F93CF93DF9302
:100C00001F92CDB7DEB7282F30E0F901EC57FF4F28
:100C10008491F901E955FF4F1491F901E653FF4F13
:100C200004910023C9F0882321F069830E94A10563
:100C30006981E02FF0E0EE0FFF1FE351FF4FA59118
:100C4000B4919FB7F8948C91611103C010958123E2
:100C500001C0812B8C939FBF0F90DF91CF911F918B
:100C60000F910895FC01818D228D90E0805C9F4F53
:100C7000821B91098F7399270895FC01918D828DB4
:100C8000981731F0828DE80FF11D858D90E0089561
:100C90008FEF9FEF0895FC01918D828D981761F081
:100CA000828DDF01A80FB11D5D968C91928D9F5FA3
:100CB0009F73928F90E008958FEF9FEF089580EEDD
:100CC00097E0892B41F080E090E0892B21F00E9491
:100CD000E00781110DC080E090E0892B71F080E089
:100CE00090E0892B51F00E940000811104C008950A
:100CF0000E940000F0CF0C9400000895FC01848D48
:100D0000DF01A80FB11DA35ABF4F2C91848D90E035
:100D100001968F739927848FA689B7892C93A08910
:100D2000B1898C9180648C93938D848D981306C0C7
:100D30000288F389E02D80818F7D80830895CF9391
:100D4000DF93EC01888D8823C9F0EA89FB898081D3
:100D500085FD05C0A889B9898C9186FD0FC00FB6A5
:100D600007FCF5CF808185FFF2CFA889B9898C91E6
:100D700085FFEDCFCE010E947E06E7CFDF91CF91B8
:100D80000895CF92DF92FF920F931F93CF93DF933B
:100D90001F92CDB7DEB76C0181E0D60158968C93D7
:100DA00058975B969C915B975C968C915C97981397
:100DB00007C05096ED91FC915197808185FD2EC022
:100DC000F601038D10E00F5F1F4F0F731127F02EF8
:100DD000F601848DF81211C00FB607FCF9CFD601C9
:100DE0005096ED91FC915197808185FFF1CFC6011E
:100DF00069830E947E066981EBCF838DE80FF11D28
:100E0000E35AFF4F6083D6015B960C935B97529633
:100E1000ED91FC915397808180620CC0D60156966B
:100E2000ED91FC91579760835096ED91FC9151970D
:100E300080818064808381E090E00F90DF91CF918A
:100E40001F910F91FF90DF90CF900895BF92CF92A6
:100E5000DF92EF92FF92CF93DF93EC016A017B0167
:100E6000B22EE889F98982E08083411581EE580726
:100E700061057105A1F060E079E08DE390E0A701E4
:100E800096010E94D809215031094109510956950E
:100E9000479537952795211580E1380798F0E8891F
:100EA000F989108260E874E88EE190E0A70196016C
:100EB0000E94D80921503109410951095695479599
:100EC00037952795EC85FD853083EE85FF8520835A
:100ED000188EEC89FD89B082EA89FB898081806166
:100EE0008083EA89FB89808188608083EA89FB8925
:100EF000808180688083EA89FB8980818F7D8083FF
:100F0000DF91CF91FF90EF90DF90CF90BF90089549
:100F10001F920F920FB60F9211242F938F939F93CE
:100F2000EF93FF93E0912C02F0912D028081E091EC
:100F30003202F091330282FD12C09081809135021D
:100F40008F5F8F7320913602821751F0E091350246
:100F5000F0E0E45EFD4F958F8093350201C0808103
:100F6000FF91EF919F918F912F910F900FBE0F9056
:100F70001F9018951F920F920FB60F9211242F9366
:100F80003F934F935F936F937F938F939F93AF9311
:100F9000BF93EF93FF938CE192E00E947E06FF9156
:100FA000EF91BF91AF919F918F917F916F915F91E1
:100FB0004F913F912F910F900FBE0F901F9018955A
:100FC0008CE192E00E94320621E0892B09F420E0B6
:100FD000822F089510921F0210921E0288EE93E055
:100FE000A0E0B0E08093200290932102A09322021F
:100FF000B093230281E591E090931D0280931C023F
:1010000080E490E0909329028093280229E230E066
:1010100030932B0220932A022BE230E030932D02F2
:1010200020932C022AE230E030932F0220932E02EC
:1010300090933102809330028CE290E090933302DF
:1010400080933202109235021092360210923702CB
:10105000109238020895CF92DF92EF92FF920F9391
:101060001F93CF93DF937C016A01EB0100E010E056
:101070000C151D0571F06991D701ED91FC9101905E
:10108000F081E02DC7010995892B19F00F5F1F4FE3
:10109000EFCFC801DF91CF911F910F91FF90EF909B
:1010A000DF90CF9008956115710581F0DB010D90FF
:1010B0000020E9F7AD0141505109461B570BDC01F7
:1010C000ED91FC910280F381E02D099480E090E0A5
:1010D00008950C9453086DE571E00C9453080F9338
:1010E0001F93CF93DF93EC010E9453088C01CE0134
:1010F0000E946B08800F911FDF91CF911F910F917C
:1011000008958F929F92AF92BF92DF92EF92FF92DB
:101110000F931F93CF93DF93CDB7DEB7A1970FB691
:10112000F894DEBF0FBECDBF7C01F42FD52ECB01CE
:1011300019A2223008F42AE08E010F5D1F4F822E83
:10114000912CA12CB12C6F2F7D2DA50194010E9413
:10115000D809F22FD32ECA01015011096A3014F4B4
:10116000E0E301C0E7E3E60FD801EC93232B242B47
:10117000252B49F7B801C7010E945308A1960FB665
:10118000F894DEBF0FBECDBFDF91CF911F910F91BD
:10119000FF90EF90DF90BF90AF909F908F90089559
:1011A0002115310541F4DC01ED91FC910190F081B4
:1011B000E02D642F09940C9481089A01462F50E089
:1011C00060E070E00C94D0080F931F93CF93DF93EF
:1011D000EC010E948F09688779878A879B87E8815D
:1011E000F9810680F781E02DCE01099597FF15C0A2
:1011F0000E948F09088519852A853B85601B710B24
:10120000820B930B0C811D812E813F81601771072A
:101210008207930720F38FEF9FEFDF91CF911F910C
:101220000F910895CF92DF92EF92FF920F931F9349
:10123000CF93DF937C016A01EB0100E010E00C1515
:101240001D0549F0C7010E94E40897FD04C0899379
:101250000F5F1F4FF4CFC801DF91CF911F910F9106
:10126000FF90EF90DF90CF90089508950E949B0922
:101270000E9435090E94B000CFE5D6E00E94AB0184
:101280002097E1F30E945F06F9CF1F920F920FB6ED
:101290000F9211242F933F938F939F93AF93BF93FC
:1012A0008091BA029091BB02A091BC02B091BD02A4
:1012B0003091B90223E0230F2D3720F40196A11DB0
:1012C000B11D05C026E8230F0296A11DB11D209374
:1012D000B9028093BA029093BB02A093BC02B09370
:1012E000BD028091BE029091BF02A091C002B09158
:1012F000C1020196A11DB11D8093BE029093BF0251
:10130000A093C002B093C102BF91AF919F918F9102
:101310003F912F910F900FBE0F901F9018952FB7F0
:10132000F8946091BA027091BB028091BC029091D6
:10133000BD022FBF0895789483B7826083BF83B7BF
:10134000816083BF89B7826089BF1EBC8EB5826011
:101350008EBD8EB581608EBD8FB581608FBD87B526
:10136000846087BD87B5806487BDEAE8F0E080814E
:1013700082608083808181608083EBE8F0E08081FF
:10138000816080831AB80895AA1BBB1B51E107C076
:10139000AA1FBB1FA617B70710F0A61BB70B881F05
:1013A000991F5A95A9F780959095BC01CD01089594
:1013B000A1E21A2EAA1BBB1BFD010DC0AA1FBB1F59
:1013C000EE1FFF1FA217B307E407F50720F0A21BCB
:1013D000B30BE40BF50B661F771F881F991F1A9438
:1013E00069F760957095809590959B01AC01BD0162
:1013F000CF010895EE0FFF1F0590F491E02D0994A1
:10140000CF93DF938230910510F482E090E0E09179
:10141000C402F091C50220E030E0A0E0B0E03097D7
:1014200039F14081518148175907B8F048175907D9
:1014300071F482819381109729F013969C938E9377
:1014400012972CC09093C5028093C40227C0211527
:10145000310531F04217530718F0A901DB0101C033
:10146000EF019A01BD01DF010280F381E02DD7CFAA
:1014700021153105F9F0281B390B2430310580F492
:101480008A819B816115710521F0FB019383828321
:1014900004C09093C5028093C402FE01329644C0FA
:1014A000FE01E20FF31F819391932250310939839A
:1014B00028833AC02091C2023091C302232B41F409
:1014C00020910201309103013093C3022093C202A4
:1014D00020910001309101012115310541F42DB712
:1014E0003EB74091040150910501241B350BE0915A
:1014F000C202F091C302E217F307A0F42E1B3F0BC8
:101500002817390778F0AC014E5F5F4F2417350775
:1015100048F04E0F5F1F5093C3024093C202819365
:10152000919302C0E0E0F0E0CF01DF91CF91089508
:10153000CF93DF93009709F487C0FC0132971382A1
:101540001282C091C402D091C502209781F42081FB
:101550003181280F391F8091C2029091C3028217F6
:10156000930779F5F093C302E093C2026DC0DE01E8
:1015700020E030E0AE17BF0750F412964D915C9119
:1015800013979D014115510509F1DA01F3CFB3839A
:10159000A28340815181840F951F8A179B0771F4A4
:1015A0008D919C911197840F951F02969183808352
:1015B00012968D919C911397938382832115310507
:1015C00029F4F093C502E093C4023EC0D9011396FA
:1015D000FC93EE9312974D915D91A40FB51FEA17FE
:1015E000FB0779F480819181840F951F0296D901C0
:1015F00011969C938E938281938113969C938E93E4
:101600001297E0E0F0E08A819B81009719F0FE01DB
:10161000EC01F9CFCE01029628813981820F931F08
:101620002091C2023091C3022817390769F430971C
:1016300029F41092C5021092C40202C013821282D1
:10164000D093C302C093C202DF91CF910895FC01F1
:1016500088279927E89421912032E9F3293010F066
:101660002E30C8F32B3241F02D3239F4689404C087
:101670000E94780B820F911D219120532A30C0F3D4
:101680001EF4909581959F4F08954EE651E00E947B
:10169000510B0895DC0101C06D9341505040E0F7BB
:1016A0000895FA01A191B081009719F41097E1F023
:1016B000CD01DC01CD010D90002011F4C00113C05B
:1016C000FB012191222319F02015D9F7F3CFFB015B
:1016D0002191201519F41E92119606C02223C1F7FC
:1016E0000D900020A1F7D001FA01A193B0830895D5
:1016F0007AE0979F902D879F802D910D112408955A
:1017000011E0CAE0D1E004C0FE010E94FC0922966B
:0A171000CC30D107C9F7F894FFCFE1
:10171A000000C6028000400048592050492049274D
:10172A006D2074686520444D585F53657269616C19
:10173A002048616E646C65722056657273696F6EBB
:10174A002034002C002000260000000000B601BA58
:10175A0001CC0100000000B601BA01CC0100000072
:10176A0000C1062B0832064B063D069F060D0A00ED
:0E177A006E616E00696E66006F7666002E006E
:00000001FF
