:100000000C9479000C948B000C948B000C948B0056
:100010000C948B000C948B000C948B000C948B0034
:100020000C948B000C948B000C948B000C948B0024
:100030000C948B000C948B000C948B000C948B0014
:100040000C948B000C94A5000C948B000C948B00EA
:100050000C948B000C948B000C948B000C948B00F4
:100060000C948B000C948B000C948B000C948B00E4
:10007000000000000009030001070A000000000062
:10008000000000000000000000000000000004006C
:1000900000000001020408401020800102102040EE
:1000A00080010204080804010204081020408001B5
:1000B0000204102040800404040404040404020226
:1000C000020202020101010102020303030303030E
:1000D00003030505050101010100003B003800355F
:1000E000003200270000003A0037003400310026BB
:1000F000000011241FBECFEFD4E0DEBFCDBF21E052
:10010000A0E0B1E001C01D92A930B207E1F70E9462
:10011000FB010C940B020C94000061E084E10C9450
:100120008B0161E084E10E94C40168EE73E080E02D
:1001300090E00E94130160E084E10E94C40168EE37
:1001400073E080E090E00C9413011F920F920FB6C1
:100150000F9211242F933F938F939F93AF93BF934D
:100160008091010190910201A0910301B0910401DD
:100170003091000123E0230F2D3720F40196A11DBB
:10018000B11D05C026E8230F0296A11DB11D2093C5
:1001900000018093010190930201A0930301B093A9
:1001A00004018091050190910601A0910701B09191
:1001B00008010196A11DB11D8093050190930601D0
:1001C000A0930701B0930801BF91AF919F918F91C8
:1001D0003F912F910F900FBE0F901F9018953FB732
:1001E000F8948091050190910601A0910701B091CA
:1001F000080122B708B601FE05C02F3F19F001968D
:10020000A11DB11D3FBF6627782F892F9A2F620F3E
:10021000711D811D911D42E0660F771F881F991F78
:100220004A95D1F70895CF92DF92EF92FF92CF9344
:10023000DF936B017C010E94EF00EB01C114D1043C
:10024000E104F10489F00E940A020E94EF006C1B95
:100250007D0B683E734090F381E0C81AD108E10835
:10026000F108C851DC4FEACFDF91CF91FF90EF90BA
:10027000DF90CF900895789483B7826083BF83B76F
:10028000816083BF89B7826089BF1EBC8EB58260E2
:100290008EBD8EB581608EBD8FB581608FBD87B5F7
:1002A000846087BD87B5806487BDEAE8F0E080811F
:1002B00082608083808181608083EBE8F0E08081D0
:1002C000816080831AB80895843099F028F48130D1
:1002D000A1F0833059F00895893099F08A30A9F05F
:1002E0008630C1F487B58F7D87BD08958FB58F7730
:1002F00002C08FB58F7D8FBD089583B78F7D83BF7B
:10030000089580918B008F7703C080918B008F7D43
:1003100080938B000895CF93DF9390E0FC01ED561E
:10032000FF4F2491FC01EA54FF4F8491882349F147
:1003300090E0880F991FFC01EB51FF4FA591B491FC
:1003400087529F4FFC01C591D4919FB7611108C09E
:10035000F8948C91209582238C93888182230AC003
:10036000623051F4F8948C91322F309583238C9322
:100370008881822B888304C0F8948C91822B8C9383
:100380009FBFDF91CF9108950F931F93CF93DF937A
:100390001F92CDB7DEB7282F30E0F901E059FF4FAB
:1003A0008491F901ED56FF4F1491F901EA54FF4F82
:1003B00004910023C9F0882321F069830E9464011D
:1003C0006981E02FF0E0EE0FFF1FE752FF4FA5918C
:1003D000B4919FB7F8948C91611103C0109581235B
:1003E00001C0812B8C939FBF0F90DF91CF911F9104
:1003F0000F91089508950E943B010E94FA010E9406
:100400008D00C0E0D0E00E9491002097E1F30E94AF
:0A0410000000F9CF0895F894FFCF23
:00000001FF
