:100000000C9479000C9496000C9496000C94960035
:100010000C9496000C9496000C9496000C94960008
:100020000C9496000C9496000C9496000C949600F8
:100030000C9496000C9496000C9496000C949600E8
:100040000C9496000C94B2000C9496000C949600BC
:100050000C9496000C9496000C9496000C949600C8
:100060000C9496000C9496000C9496000C949600B8
:10007000000000000009030001070A000000000062
:10008000000000000000000000000000000004006C
:1000900000000001020408401020800102102040EE
:1000A00080010204080804010204081020408001B5
:1000B0000204102040800404040404040404020226
:1000C000020202020101010102020303030303030E
:1000D00003030505050101010100003B003800355F
:1000E000003200270000003A0037003400310026BB
:1000F000000011241FBECFEFD4E0DEBFCDBF11E062
:10010000A0E0B1E0EEE4F4E002C005900D92A23070
:10011000B107D9F721E0A2E0B1E001C01D92AB30F8
:10012000B207E1F70E9415020C9425020C9400001E
:1001300061E087E00C94A50161E0809100010E94DC
:10014000DE0168EE73E080E090E00E94200160E054
:10015000809100010E94DE0168EE73E080E090E093
:100160000C9420011F920F920FB60F9211242F931F
:100170003F938F939F93AF93BF938091030190918F
:100180000401A0910501B09106013091020123E024
:10019000230F2D3720F40196A11DB11D05C026E8BF
:1001A000230F0296A11DB11D20930201809303012C
:1001B00090930401A0930501B0930601809107017B
:1001C00090910801A0910901B0910A010196A11D29
:1001D000B11D8093070190930801A0930901B0938A
:1001E0000A01BF91AF919F918F913F912F910F90F5
:1001F0000FBE0F901F9018953FB7F894809107019C
:1002000090910801A0910901B0910A0122B708B6A6
:1002100001FE05C02F3F19F00196A11DB11D3FBF82
:100220006627782F892F9A2F620F711D811D911DCE
:1002300042E0660F771F881F991F4A95D1F70895EE
:100240008F929F92AF92BF92CF92DF92EF92FF92E6
:100250006B017C010E94FC004B015C01C114D104C4
:10026000E104F104F1F00E9424020E94FC006819EC
:1002700079098A099B09683E73408105910570F3ED
:1002800021E0C21AD108E108F10888EE880E83E067
:10029000981EA11CB11CC114D104E104F10429F77A
:1002A000DDCFFF90EF90DF90CF90BF90AF909F9009
:1002B0008F900895789483B7826083BF83B78160FD
:1002C00083BF89B7826089BF1EBC8EB582608EBD38
:1002D0008EB581608EBD8FB581608FBD87B584601E
:1002E00087BD87B5806487BDEAE8F0E080818260E1
:1002F0008083808181608083EBE8F0E08081816091
:1003000080831AB80895863091F028F4833041F044
:10031000843049F00895893071F08A3081F0089571
:100320008FB58F7702C08FB58F7D8FBD089587B54C
:100330008F7D87BD089580918B008F7703C080915A
:100340008B008F7D80938B000895CF93DF9390E097
:10035000FC01ED56FF4F2491FC01EA54FF4F8491BC
:10036000882349F190E0880F991FFC01EB51FF4F62
:10037000A591B49187529F4FFC01C591D4919FB72D
:10038000611108C0F8948C91209582238C93888108
:1003900082230AC0623051F4F8948C91322F309548
:1003A00083238C938881822B888304C0F8948C915A
:1003B000822B8C939FBFDF91CF9108950F931F9352
:1003C000CF93DF931F92CDB7DEB7282F30E0F9012E
:1003D000E059FF4F8491F901ED56FF4F1491F90157
:1003E000EA54FF4F04910023C9F0882321F0698368
:1003F0000E9483016981E02FF0E0EE0FFF1FE752BA
:10040000FF4FA591B4919FB7F8948C91611103C0EF
:100410001095812301C0812B8C939FBF0F90DF919A
:10042000CF911F910F91089508950E945A010E9443
:1004300014020E949800C0E0D0E00E949C00209727
:0E044000E1F30E940000F9CF0895F894FFCF79
:02044E000700A5
:00000001FF
