:100000000C9479000C948B000C948B000C948B0056
:100010000C948B000C948B000C948B000C948B0034
:100020000C948B000C948B000C948B000C948B0024
:100030000C948B000C948B000C948B000C948B0014
:100040000C948B000C94A5000C948B000C948B00EA
:100050000C948B000C948B000C948B000C948B00F4
:100060000C948B000C948B000C948B000C948B00E4
:10007000000000000009030001070A000000000062
:10008000000000000000000000000000000004006C
:1000900000000001020408401020800102102040EE
:1000A00080010204080804010204081020408001B5
:1000B0000204102040800404040404040404020226
:1000C000020202020101010102020303030303030E
:1000D00003030505050101010100003B003800355F
:1000E000003200270000003A0037003400310026BB
:1000F000000011241FBECFEFD4E0DEBFCDBF21E052
:10010000A0E0B1E001C01D92A930B207E1F70E9462
:10011000FB010C940B020C94000061E08DE00C9448
:100120008B0161E08DE00E94C40168EE73E080E025
:1001300090E00E94130160E08DE00E94C40168EE2F
:1001400073E080E090E00C9413011F920F920FB6C1
:100150000F9211242F933F938F939F93AF93BF934D
:100160008091010190910201A0910301B0910401DD
:100170003091000123E0230F2D3720F40196A11DBB
:10018000B11D05C026E8230F0296A11DB11D2093C5
:1001900000018093010190930201A0930301B093A9
:1001A00004018091050190910601A0910701B09191
:1001B00008010196A11DB11D8093050190930601D0
:1001C000A0930701B0930801BF91AF919F918F91C8
:1001D0003F912F910F900FBE0F901F9018953FB732
:1001E000F8948091050190910601A0910701B091CA
:1001F000080122B708B601FE05C02F3F19F001968D
:10020000A11DB11D3FBF6627782F892F9A2F620F3E
:10021000711D811D911D42E0660F771F881F991F78
:100220004A95D1F70895CF92DF92EF92FF92CF9344
:10023000DF936B017C010E94EF00EB01C114D1043C
:10024000E104F10489F00E940A020E94EF006C1B95
:100250007D0B683E734090F381E0C81AD108E10835
:10026000F108C851DC4FEACFDF91CF91FF90EF90BA
:10027000DF90CF900895789483B7826083BF83B76F
:10028000816083BF89B7826089BF1EBC8EB58260E2
:100290008EBD8EB581608EBD8FB581608FBD87B5F7
:1002A000846087BD87B5806487BDEAE8F0E080811F
:1002B00082608083808181608083EBE8F0E08081D0
:1002C000816080831AB80895843099F028F48130D1
:1002D000A1F0833059F00895893099F08A30A9F05F
:1002E0008630C1F487B58F7D87BD08958FB58F7730
:1002F00002C08FB58F7D8FBD089583B78F7D83BF7B
:10030000089580918B008F7703C080918B008F7D43
:1003100080938B000895CF93DF9390E0FC01ED561E
:10032000FF4F2491FC01EA54FF4F8491882349F147
:1003300090E0880F991FFC01EB51FF4FA591B491FC
:1003400087529F4FFC01C591D4919FB7611108C09E
:10035000F8948C91209582238C93888182230AC003
:10036000623051F4F8948C91322F309583238C9322
:100370008881822B888304C0F8948C91822B8C9383
:100380009FBFDF91CF9108950F931F93CF93DF937A
:100390001F92CDB7DEB7282F30E0F901E059FF4FAB
:1003A0008491F901ED56FF4F1491F901EA54FF4F82
:1003B00004910023C9F0882321F069830E9464011D
:1003C0006981E02FF0E0EE0FFF1FE752FF4FA5918C
:1003D000B4919FB7F8948C91611103C0109581235B
:1003E00001C0812B8C939FBF0F90DF91CF911F9104
:1003F0000F91089508950E943B010E94FA010E9406
:100400008D00C0E0D0E00E9491002097E1F30E94AF
:0A0410000000F9CF0895F894FFCF23
:103E000011248FEF94E09EBF8DBF94B714BE892F0D
:103E10008D7011F0892FD0D085E08EBD82E08BB9F6
:103E200088E18AB986E080BD80E189B98EE0B0D0B2
:103E3000B89A96E020E33CEF50E841E03DBD2CBD50
:103E400058BF08B607FEFDCF88B3842788BBA89566
:103E50009150A1F7EE24FF24B3E0AB2EBB24B39422
:103E6000A5E0DA2EF1E1CF2E8CD0813471F489D027
:103E7000082F92D0023811F482E005C0013811F405
:103E800086E001C083E079D075C0823411F484E10A
:103E900003C0853419F485E087D06CC0853579F48A
:103EA00070D0E82EFF246DD0082F10E0102F0027CF
:103EB0000E291F29000F111F6FD078015BC08635B6
:103EC00021F484E071D080E0DECF843609F035C083
:103ED00058D057D0182F55D0082FC0E0D1E051D07E
:103EE00089931C17E1F758D0053409F4FFCFF70187
:103EF000A7BEE89507B600FCFDCFA701A0E0B1E0A2
:103F00002C9130E011968C91119790E0982F882792
:103F1000822B932B1296FA010C01B7BEE89511245F
:103F20004E5F5F4F1A1761F7F701D7BEE89507B6E6
:103F300000FCFDCFC7BEE8951DC0843769F421D0D1
:103F400020D0082F1ED028D0E701FE018591EF0177
:103F500014D00150D1F70EC0853739F41DD08EE151
:103F60000CD084E90AD084E08ECF813511F488E04A
:103F70000FD012D080E101D077CF5D9BFECF8CB9FE
:103F800008955F9BFECF5C9901C0A8958CB1089500
:103F900098E191BD81BD0895F4DF803219F088E089
:103FA000F7DFFFCF84E1E9CF1F93182FEADF11502D
:103FB000E9F7F2DF1F910895282E80E0E9DFE0E0C5
:043FC000FF2709943A
:023FFE000206B9
:0400000300003E00BB
:00000001FF
