:100000000C9486000C94AE000C94AE000C94AE00E0
:100010000C94AE000C94AE000C94AE000C94AE00A8
:100020000C94AE000C94AE000C94AE000C94AE0098
:100030000C94AE000C94AE000C94AE000C94AE0088
:100040000C94AE000C941D050C94AE000C94AE0400
:100050000C94C8070C94AE000C94FA070C94FA03A5
:100060000C94AE000C94AE000C94AE000C94AE0058
:1000700018049D0427049D043D046B0473049D042F
:1000800083049504000000000009030001070A0032
:100090000000000000000000000000000000000060
:1000A000000004000000000102040840102080014C
:1000B0000210204080010204080804010204081014
:1000C0002040800102041020408004040404040441
:1000D00004040202020202020101010102020303FE
:1000E0000303030303030505050101010100003BB0
:1000F00000380035003200270000003A0037003495
:1001000000310026000066012A08700111241FBE7C
:10011000CFEFD4E0DEBFCDBF11E0A0E0B1E0E8E179
:10012000F6E102C005900D92A636B107D9F723E09B
:10013000A6E6B1E001C01D92A233B207E1F711E0DB
:10014000CAE0D1E004C02297FE010E946109C630D6
:10015000D107C9F70E9419090C94FF0A0C940000FA
:1001600088E691E00E94D40320E040E052E061E0A4
:1001700070E088E691E00C941602CF93DF9360E084
:1001800082E00E944206C1E0D0E080910601909199
:1001900007018C179D0740F068E071E081E992E06B
:1001A0000E94A9082196F1CF6AE071E081E992E00E
:1001B000DF91CF910C94AF080F931F93CF93DF93F0
:1001C00061E082E00E94420601E711E0C0E0D0E079
:1001D000F80141918F012196BE0188E691E00E94CD
:1001E0001002C130F1E0DF0799F7DF91CF911F9145
:1001F0000F910895EF92FF920F931F93CF93DF9388
:10020000CDB7DEB7EDB6FEB64091060150910701BD
:10021000440F551F440F551FCA0101962DB73EB715
:10022000281B390B0FB6F8943EBF0FBE2DBF0DB77C
:100230001EB70F5F1F4FB80181E992E00E94F508D9
:10024000F801E80FF11D10826CE071E0C8010E9416
:10025000C40A01E711E0009761F00E94A60AF801C4
:1002600081938F016CE071E080E090E00E94C40A0D
:10027000F2CF0E94DC0064EF71E080E090E00E9429
:1002800091050FB6F894FEBE0FBEEDBEDF91CF9183
:100290001F910F91FF90EF90089526E040E052ECFF
:1002A00061E070E081E992E00E946C074AEF50E063
:1002B00060E070E081E992E00E94EF080E94B000E7
:1002C0006EE071E081E992E00C94AF086091060164
:1002D0007091070142E050E088E691E00C94AD0394
:1002E00088E691E00C94EC0381E992E00E947806A4
:1002F0001816190614F40C94FA000C94BD00FC01B5
:10030000848195810895DC0114962D913C91159777
:100310006217730740F41696ED91FC911797E60F5C
:10032000F71F8081089580E00895DC0114962D91D7
:100330003C9115976217730738F41696ED91FC916E
:100340001797E60FF71F408308950F931F93CF93DE
:10035000DF93EC018B018FE391E09983888381E047
:1003600090E00E947F099B838A83C80102978115D0
:10037000924078F4C8010E947F099F838E83009782
:1003800051F0A80160E070E00E94C90A1D830C834F
:1003900002C01D821C828A819B8101969B838A8375
:1003A000DF91CF911F910F910895CF93DF93EC01CF
:1003B0008FE391E099838883EA81FB81808181507A
:1003C000808381110CC08E819F81009711F00E9463
:1003D000170A8A819B81DF91CF910C94170ADF91D4
:1003E000CF910895CF93DF93FB01EC01AC81BD81E8
:1003F0006A177B0790F44A175B0778F46417750750
:1004000060F4461B570B622F70E08E819F818E0F28
:100410009F1FDF91CF910C94C90ADF91CF9108956E
:100420006115710511F00C94950108956115710520
:1004300011F00C94F2010895FF920F931F93CF9344
:10044000DF93EC01F62E442399F08A859B85039770
:1004500059F4E0917B02F0917C02309729F0809171
:10046000790290917A02099581E090E09B878A87D2
:100470008A859B8582309105D1F08330910539F1D1
:10048000019709F056C0E881F9810480F581E02DDB
:100490004F2D60E070E0CE01099588859985909395
:1004A0007A028093790282E090E09B878A8780912C
:1004B000790290917A02019790937A02809379025F
:1004C000892BB9F583E090E09B878A8732C0009141
:1004D000790210917A02C801019690937A02809372
:1004E0007902E881F9810190F081E02DCE01099532
:1004F0000817190768F4E881F98160917902709111
:100500007A020480F581E02D4F2DCE01099511C0AE
:1005100084E090E09B878A87E0917B02F0917C02E7
:10052000309749F08091790290917A02029709956B
:1005300002C080E001C081E0DF91CF911F910F9157
:10054000FF900895CF93DF93EC01442351F081E0B5
:1005500090E09B838A831DAE1CAE109278021092AD
:10056000770220917702309178022833310508F024
:1005700064C08A819B8183309105D9F034F4813045
:10058000910551F0029761F05AC085309105C9F18B
:10059000FCF00697D1F153C06C8382E090E006C076
:1005A000613009F04AC06D8383E090E09B838A83C9
:1005B00046C06E8324E030E03B832A8370E06353BF
:1005C0007F4F7DAF6CAF909378028093770237C0F6
:1005D000A9014F5F5F4F5093780240937702FE016D
:1005E000E20FF31F64838CAD9DAD860F911D9DAF0F
:1005F0008CAF8E8190E04817590708F185E090E0B4
:10060000D5CF6DAF86E090E0D1CF6CAF2CAD3DADD6
:10061000C90160E070E00E9429098217930759F42C
:1006200087E090E09B838A83E881F9810680F781E7
:10063000E02DCE0109951B821A8281E001C080E085
:10064000DF91CF910895CF93DF93FC01DB01442329
:1006500061F084E090E0938382831092760210929E
:100660007502109274021092730282819381853018
:10067000910531F18630910559F1049781F520916A
:10068000730230917402EF01C20FD31F4C8180912D
:10069000750290917602840F911D9093760280935B
:1006A0007502C901019690937402809373024C9372
:1006B000268130E08217930790F085E090E005C036
:1006C000809176028C9386E090E09383828307C0CA
:1006D000809175028C931382128281E001C080E0C8
:1006E000DF91CF91089520B52E6020BD8230910515
:1006F000D9F074F40097A9F0019749F510BC84E093
:1007000089B910927E0210927D0280E98AB90AC0EE
:100710008330910559F00497D1F41CB887E090E03C
:100720000FC01AB860E013C01CB80AC010BC24E0A7
:1007300029B91CB81AB89093800280937F0206C032
:100740009093800280937F0288E48AB961E080916F
:10075000810287FF0C94420608950F931F93CF9355
:10076000DF931F92CDB7DEB78C016F5F7F4F498358
:100770000E94A50181E0D80118968C9318971696CF
:10078000ED91FC911797108249814093810261E0BD
:10079000842F0E94090680E090E00F90DF91CF91B6
:1007A0001F910F910C94730390938702809386029C
:1007B000FC018085882319F082E090E002C083E08C
:1007C00090E00C94730380E090E00E947303109219
:1007D0008702109286020895CF93DF93EC010E9466
:1007E000E3031092870210928602CE01DF91CF912F
:1007F0000C94D5011F920F920FB60F9211242F93D4
:100800003F934F935F936F937F938F939F93AF9398
:10081000BF93EF93FF93E0917F02F09180023297B4
:10082000EA30F10508F089C0E85CFF4F0C945F09DD
:100830001BB810BC8CE089B91CB880917F029091E4
:100840008002029709F079C084E090E069C01BB88B
:1008500010BC84E089B981E090E0909372028093AB
:100860007102E0918602F09187020680F781E02D07
:1008700080818CB986E090E053C08091860290918F
:100880008702DC01ED91FC910280F381E02D609103
:100890007102709172029B012F5F3F4F3093720281
:1008A0002093710209958CB9809171029091720226
:1008B0008130924008F441C0E0918602F0918702B5
:1008C0008085882319F082E090E02AC083E090E0E0
:1008D0000E94730332C01BB810BC8CE089B91CB8ED
:1008E00088E090E01DC01BB810BC84E089B941E0ED
:1008F0006CE270E080918202909183020E94230357
:100900008AE090E00DC040E06CE270E080918202ED
:10091000909183020E942303882379F08BE090E07A
:100920009093800280937F0208C081E090E00E9453
:1009300073031092800210927F02FF91EF91BF919A
:10094000AF919F918F917F916F915F914F913F9167
:100950002F910F900FBE0F901F9018951F920F921E
:100960000FB60F9211242F933F934F935F936F9382
:100970007F938F939F93AF93BF93EF93FF938BB12D
:100980006CB184FF04C05C9881E090E019C0809154
:100990007D0290917E028530910549F18930910563
:1009A00071F10197C9F580918402909185020097B9
:1009B00061F061110AC041E00E941C0285E090E0F4
:1009C00090937E0280937D0227C080918202909155
:1009D00083020097E9F06C3CD9F4FC0126AD22FFBC
:1009E00017C041E00E94A20289E090E0E9CF40E018
:1009F00080918402909185020E941C0207C040E011
:100A000080918202909183020E94A202882321F0A9
:100A100010927E0210927D02FF91EF91BF91AF91F3
:100A20009F918F917F916F915F914F913F912F9106
:100A30000F900FBE0F901F9018951F920F920FB638
:100A40000F9211242F933F938F939F93AF93BF9354
:100A50008091890290918A02A0918B02B0918C02C0
:100A60003091880226E6230F2D3728F029EE230F38
:100A70000196A11DB11D2093880280938902909355
:100A80008A02A0938B02B0938C0280918D02909188
:100A90008E02A0918F02B09190020196A11DB11D0E
:100AA00080938D0290938E02A0938F02B093900258
:100AB000BF91AF919F918F913F912F910F900FBE5A
:100AC0000F901F9018952FB7F8946091890270913C
:100AD0008A0280918B0290918C022FBF08959FB75C
:100AE000F89440918D0250918E0260918F02709126
:100AF000900282B708B601FE06C08F3F21F04F5F1B
:100B00005F4F6F4F7F4F9FBF2227342F452F562FA8
:100B1000280F311D411D511DA3E0B0E00E94650961
:100B20000895CF92DF92EF92FF92CF93DF936B0104
:100B30007C010E946F05EB01C114D104E104F104B2
:100B400089F00E9428090E946F056C1B7D0B683E8E
:100B5000734090F381E0C81AD108E108F108C85148
:100B6000DC4FEACFDF91CF91FF90EF90DF90CF90F5
:100B70000895789483B7826083BF83B7816083BF11
:100B800089B7826089BF1EBC8EB582608EBD8EB56E
:100B900081608EBD8FB581608FBD87B5846087BD54
:100BA00087B5806487BDEAE8F0E080818260808359
:100BB000808181608083EBE8F0E0808181608083C8
:100BC0001AB80895843099F028F48130A1F0833068
:100BD00059F00895893099F08A30A9F08630C1F42F
:100BE00087B58F7D87BD08958FB58F7702C08FB58C
:100BF0008F7D8FBD089583B78F7D83BF08958091CA
:100C00008B008F7703C080918B008F7D80938B004A
:100C10000895CF93DF9390E0FC01E955FF4F2491B5
:100C2000FC01E653FF4F8491882349F190E0880F3F
:100C3000991FFC01E750FF4FA591B49183519F4F3D
:100C4000FC01C591D4919FB7611108C0F8948C91B3
:100C5000209582238C93888182230AC0623051F4CC
:100C6000F8948C91322F309583238C938881822B3A
:100C7000888304C0F8948C91822B8C939FBFDF9162
:100C8000CF9108950F931F93CF93DF931F92CDB70A
:100C9000DEB7282F30E0F901EC57FF4F8491F901BE
:100CA000E955FF4F1491F901E653FF4F04910023DA
:100CB000C9F0882321F069830E94E2056981E02F51
:100CC000F0E0EE0FFF1FE351FF4FA591B4919FB7E6
:100CD000F8948C91611103C01095812301C0812B80
:100CE0008C939FBF0F90DF91CF911F910F9108952B
:100CF000FC01818D228D90E0805C9F4F821B9109C9
:100D00008F7399270895FC01918D828D981731F08A
:100D1000828DE80FF11D858D90E008958FEF9FEF94
:100D20000895FC01918D828D981761F0828DDF010D
:100D3000A80FB11D5D968C91928D9F5F9F73928FCE
:100D400090E008958FEF9FEF089580E090E0892B69
:100D500041F080E090E0892B21F00E940000811199
:100D60000DC080E298E0892B71F080E090E0892B43
:100D700051F00E942008811104C008950E940000D3
:100D8000F0CF0C9400000895FC01848DDF01A80FC2
:100D9000B11DA35ABF4F2C91848D90E001968F73A3
:100DA0009927848FA689B7892C93A089B1898C91C2
:100DB00080648C93938D848D981306C00288F38988
:100DC000E02D80818F7D80830895CF93DF93EC01A8
:100DD000888D8823C9F0EA89FB89808185FD05C05B
:100DE000A889B9898C9186FD0FC00FB607FCF5CF95
:100DF000808185FFF2CFA889B9898C9185FFEDCFDD
:100E0000CE010E94C406E7CFDF91CF910895CF9223
:100E1000DF92FF920F931F93CF93DF931F92CDB773
:100E2000DEB76C0181E0D60158968C9358975B969B
:100E30009C915B975C968C915C97981307C0509639
:100E4000ED91FC915197808185FD2EC0F601038DB7
:100E500010E00F5F1F4F0F731127F02EF601848DE6
:100E6000F81211C00FB607FCF9CFD6015096ED91DC
:100E7000FC915197808185FFF1CFC60169830E9463
:100E8000C4066981EBCF838DE80FF11DE35AFF4F54
:100E90006083D6015B960C935B975296ED91FC9123
:100EA0005397808180620CC0D6015696ED91FC91DB
:100EB000579760835096ED91FC91519780818064A3
:100EC000808381E090E00F90DF91CF911F910F918F
:100ED000FF90DF90CF900895BF92CF92DF92EF9274
:100EE000FF92CF93DF93EC016A017B01B22E60E4A5
:100EF0007BE48CE490E0A70196010E943D0921501B
:100F00003109410951095695479537952795E88943
:100F1000F98982E08083211580E1380798F0E8891B
:100F2000F989108260EA75E286E290E0A7019601F5
:100F30000E943D09215031094109510956954795B3
:100F400037952795EC85FD853083EE85FF852083D9
:100F5000188EEC89FD89B082EA89FB8980818061E5
:100F60008083EA89FB89808188608083EA89FB89A4
:100F7000808180688083EA89FB8980818F7D80837E
:100F8000DF91CF91FF90EF90DF90CF90BF900895C9
:100F90001F920F920FB60F9211242F938F939F934E
:100FA000EF93FF93E091A102F091A2028081E09182
:100FB000A702F091A80282FD12C090818091AA023E
:100FC0008F5F8F732091AB02821751F0E091AA02DC
:100FD000F0E0EF56FD4F958F8093AA0201C080810B
:100FE000FF91EF919F918F912F910F900FBE0F90D6
:100FF0001F9018951F920F920FB60F9211242F93E6
:101000003F934F935F936F937F938F939F93AF9390
:10101000BF93EF93FF9381E992E00E94C406FF9192
:10102000EF91BF91AF919F918F917F916F915F9160
:101030004F913F912F910F900FBE0F901F901895D9
:1010400081E992E00E94780621E0892B09F420E0F2
:10105000822F0895109294021092930288EE93E0EA
:10106000A0E0B0E08093950290939602A09397023F
:10107000B093980289E491E0909392028093910258
:101080008CE590E090939E0280939D0220E230E0F8
:101090003093A00220939F0222E230E03093A2021C
:1010A0002093A10221E230E03093A4022093A30216
:1010B0009093A6028093A50283E290E09093A80209
:1010C0008093A7021092AA021092AB021092AC0277
:1010D0001092AD020895CF92DF92EF92FF920F939C
:1010E0001F93CF93DF936C017A01EB01E60EF71E9D
:1010F00000E010E0CE15DF0561F06991D601ED91B9
:10110000FC910190F081E02DC6010995080F191F8F
:10111000F1CFC801DF91CF911F910F91FF90EF9018
:10112000DF90CF9008956115710581F0DB010D907E
:101130000020E9F7AD0141505109461B570BDC0176
:10114000ED91FC910280F381E02D099480E090E024
:1011500008950C94930865E571E00C9493080F933F
:101160001F93CF93DF93EC010E9493088C01CE0173
:101170000E94AB08800F911FDF91CF911F910F91BB
:1011800008950F931F93CF93DF93EC010E946305A3
:10119000688779878A879B87E881F9810680F7814C
:1011A000E02DCE01099597FF15C00E9463050885C3
:1011B00019852A853B85601B710B820B930B0C8173
:1011C0001D812E813F81601771078207930720F3ED
:1011D0008FEF9FEFDF91CF911F910F910895FC0149
:1011E00044835583668377830895CF92DF92EF928D
:1011F000FF920F931F93CF93DF937C016A01EB0162
:1012000000E010E00C151D0549F0C7010E94C1085F
:1012100097FD04C089930F5F1F4FF4CFC801DF9182
:10122000CF911F910F91FF90EF90DF90CF90089595
:1012300008950E94B9050E9418090E944D01C5EA4F
:10124000D6E00E9474012097E1F30E94A506F9CF31
:101250000895AA1BBB1B51E107C0AA1FBB1FA617FD
:10126000B70710F0A61BB70B881F991F5A95A9F74F
:1012700080959095BC01CD010895A1E21A2EAA1B7C
:10128000BB1BFD010DC0AA1FBB1FEE1FFF1FA21736
:10129000B307E407F50720F0A21BB30BE40BF50B33
:1012A000661F771F881F991F1A9469F760957095BC
:1012B000809590959B01AC01BD01CF010895EE0F83
:1012C000FF1F0590F491E02D09940E947009A59FDD
:1012D000900DB49F900DA49F800D911D1124089531
:1012E000A29FB001B39FC001A39F700D811D112467
:1012F000911DB29F700D811D1124911D0895CF93F2
:10130000DF938230910510F482E090E0E0913003A9
:10131000F091310320E030E0A0E0B0E0309739F107
:101320004081518148175907B8F04817590771F49F
:1013300082819381109729F013969C938E93129734
:101340002CC0909331038093300327C021153105C1
:1013500031F04217530718F0A901DB0101C0EF017A
:101360009A01BD01DF010280F381E02DD7CF211565
:101370003105F9F0281B390B2430310580F48A81BE
:101380009B816115710521F0FB019383828304C069
:101390009093310380933003FE01329644C0FE01E6
:1013A000E20FF31F819391932250310939832883EF
:1013B0003AC020912E0330912F03232B41F420912A
:1013C00002013091030130932F0320932E032091CB
:1013D0000001309101012115310541F42DB73EB7CF
:1013E0004091040150910501241B350BE0912E031F
:1013F000F0912F03E217F307A0F42E1B3F0B2817E1
:10140000390778F0AC014E5F5F4F2417350748F07D
:101410004E0F5F1F50932F0340932E0381939193A0
:1014200002C0E0E0F0E0CF01DF91CF910895CF93CB
:10143000DF93009709F487C0FC0132971382128270
:10144000C0913003D0913103209781F42081318104
:10145000280F391F80912E0390912F038217930735
:1014600079F5F0932F03E0932E036DC0DE0120E0A9
:1014700030E0AE17BF0750F412964D915C91139770
:101480009D014115510509F1DA01F3CFB383A28320
:1014900040815181840F951F8A179B0771F48D91AC
:1014A0009C911197840F951F0296918380831296C9
:1014B0008D919C911397938382832115310529F493
:1014C000F0933103E09330033EC0D9011396FC93AF
:1014D000EE9312974D915D91A40FB51FEA17FB078C
:1014E00079F480819181840F951F0296D90111961C
:1014F0009C938E938281938113969C938E931297E3
:10150000E0E0F0E08A819B81009719F0FE01EC0198
:10151000F9CFCE01029628813981820F931F209145
:101520002E0330912F032817390769F4309729F4D7
:10153000109231031092300302C013821282D093B2
:101540002F03C0932E03DF91CF910895FC018827CC
:101550009927E89421912032E9F3293010F02E30B8
:10156000C8F32B3241F02D3239F4689404C00E9444
:10157000F70A820F911D219120532A30C0F31EF4E7
:10158000909581959F4F089546E651E00E94D00ABC
:101590000895DC0101C06D9341505040E0F708957B
:1015A000FA01A191B081009719F41097E1F0CD01F3
:1015B000DC01CD010D90002011F4C00113C0FB012E
:1015C0002191222319F02015D9F7F3CFFB012191A6
:1015D000201519F41E92119606C02223C1F70D9012
:1015E0000020A1F7D001FA01A193B08308957AE019
:1015F000979F902D879F802D910D1124089511E0C4
:10160000CAE0D1E004C0FE010E9461092296CC30FC
:08161000D107C9F7F894FFCFE0
:1016180000003203800000012C00200026004859F9
:101628002050492049276D2074686520444D585F33
:1016380053657269616C2048616E646C65722056EE
:10164800657273696F6E20332E3100000000007FD1
:1016580001830195010000000007076B08780691D7
:10166800068306E5060D0A006E616E00696E660067
:061678006F7666002E00F3
:00000001FF
