:100000000C9486000C94AE000C94AE000C94AE00E0
:100010000C94AE000C94AE000C94AE000C94AE00A8
:100020000C94AE000C94AE000C94AE000C94AE0098
:100030000C94AE000C94AE000C94AE000C94AE0088
:100040000C94AE000C948E050C94AE000C941F051D
:100050000C9439080C94AE000C946B080C946B044F
:100060000C94AE000C94AE000C94AE000C94AE0058
:1000700089040E0598040E05AE04DC04E4040E05A4
:10008000F4040605000000000009030001070A004F
:100090000000000000000000000000000000000060
:1000A000000004000000000102040840102080014C
:1000B0000210204080010204080804010204081014
:1000C0002040800102041020408004040404040441
:1000D00004040202020202020101010102020303FE
:1000E0000303030303030505050101010100003BB0
:1000F00000380035003200270000003A0037003495
:100100000031002600007C019B08900111241FBED5
:10011000CFEFD4E0DEBFCDBF11E0A0E0B1E0E4ED71
:10012000F7E102C005900D92A037B107D9F723E09F
:10013000A0E7B1E001C01D92A834B207E1F711E0D9
:10014000CAE0D1E004C02297FE010E943F0AC630F7
:10015000D107C9F70E94F7090C94DD0B0C9400003D
:1001600082E791E00E94530461E070E082E791E051
:100170000E9447028EE791E00E94030420E040E0E5
:1001800052E061E070E08EE791E00C943A02CF9388
:10019000DF9360E082E00E94B306C1E0D0E080918E
:1001A0000601909107018C179D07A0F0BE0182E720
:1001B00091E00E9440024AE050E0682F87EA92E016
:1001C0000E94980968E071E087EA92E00E941A09AB
:1001D0002196E5CF6AE071E087EA92E0DF91CF9166
:1001E0000C9420090F931F93CF93DF9361E082E07B
:1001F0000E94B30607E811E0C0E0D0E0F8014191A9
:100200008F012196BE018EE791E00E943402C13039
:10021000F1E0DF0799F7DF91CF911F910F910895DA
:10022000EF92FF920F931F93CF93DF93CDB7DEB77B
:10023000EDB6FEB64091060150910701440F551FDF
:10024000440F551FCA0101962DB73EB7281B390B25
:100250000FB6F8943EBF0FBE2DBF0DB71EB70F5F90
:100260001F4FB80187EA92E00E94D309F801E80F16
:10027000F11D10826CE071E0C8010E94A20B07E83A
:1002800011E0009761F00E94840BF80181938F01C7
:100290006CE071E080E090E00E94A20BF2CF0E943F
:1002A000F20064EF71E080E090E00E9402060FB679
:1002B000F894FEBE0FBEEDBEDF91CF911F910F915E
:1002C000FF90EF90089526E040E052EC61E070E08E
:1002D00087EA92E00E94DD074AEF50E060E070E0BC
:1002E00087EA92E00E94CD090E94B0006EE071E0C2
:1002F00087EA92E00C942009609106017091070151
:1003000042E050E08EE791E00E94DC03609106013C
:10031000709107014FEF5FEF82E791E00C942904A1
:1003200082E791E00E9457048EE791E00C941B0451
:1003300087EA92E00E94E9061816190614F40C9454
:1003400010010C94C700FC01848195810895DC01A3
:1003500014962D913C9115976217730740F41696E9
:10036000ED91FC911797E60FF71F8081089580E0CB
:100370000895DC0114962D913C911597621773072F
:1003800038F41696ED91FC911797E60FF71F40830E
:1003900008950F931F93CF93DF93EC018B0189E4B2
:1003A00091E09983888381E090E00E945D0A9B83BD
:1003B0008A83C80102978115924078F4C8010E948F
:1003C0005D0A9F838E83009751F0A80160E070E082
:1003D0000E94A70B1D830C8302C01D821C828A8190
:1003E0009B8101969B838A83DF91CF911F910F910F
:1003F0000895CF93DF93EC0189E491E0998388839A
:10040000EA81FB8180818150808381110CC08E81C3
:100410009F81009711F00E94F50A8A819B81DF91EC
:10042000CF910C94F50ADF91CF910895CF93DF938C
:10043000FB01EC01AC81BD816A177B0790F44A1780
:100440005B0778F46417750760F4461B570B622F3F
:1004500070E08E819F818E0F9F1FDF91CF910C9452
:10046000A70BDF91CF9108956115710511F00C94E0
:10047000B90108956115710511F00C9416020895E3
:10048000DC01ED91FC910280F381E02D0994FC01E7
:10049000718760870895FF920F931F93CF93DF9327
:1004A000EC01F62E442399F08A859B85039759F435
:1004B000E0919102F0919202309729F080918F02A1
:1004C00090919002099581E090E09B878A878A85C8
:1004D0009B8582309105D1F08330910539F10197E8
:1004E00009F056C0E881F9810480F581E02D4F2D97
:1004F00060E070E0CE01099588859985909390021F
:1005000080938F0282E090E09B878A8780918F02A0
:100510009091900201979093900280938F02892B83
:10052000B9F583E090E09B878A8732C000918F0203
:1005300010919002C80101969093900280938F02CF
:10054000E881F9810190F081E02DCE01099508172D
:10055000190768F4E881F98160918F027091900227
:100560000480F581E02D4F2DCE01099511C084E066
:1005700090E09B878A87E0919102F09192023097F8
:1005800049F080918F02909190020297099502C0E4
:1005900080E001C081E0DF91CF911F910F91FF902A
:1005A0000895CF93DF93EC01442351F081E090E074
:1005B0009B838A831DAE1CAE10928E0210928D0218
:1005C00020918D0230918E022833310508F064C0ED
:1005D0008A819B8183309105D9F034F48130910573
:1005E00051F0029761F05AC085309105C9F1FCF0D5
:1005F0000697D1F153C06C8382E090E006C0613071
:1006000009F04AC06D8383E090E09B838A8346C0F3
:100610006E8324E030E03B832A8370E063537F4F96
:100620007DAF6CAF90938E0280938D0237C0A9018D
:100630004F5F5F4F50938E0240938D02FE01E20F99
:10064000F31F64838CAD9DAD860F911D9DAF8CAF64
:100650008E8190E04817590708F185E090E0D5CFEA
:100660006DAF86E090E0D1CF6CAF2CAD3DADC90150
:1006700060E070E00E94070A8217930759F487E050
:1006800090E09B838A83E881F9810680F781E02DE1
:10069000CE0109951B821A8281E001C080E0DF91C2
:1006A000CF910895CF93DF93FC01DB01442361F0E8
:1006B00084E090E09383828310928C0210928B02EC
:1006C00010928A021092890282819381853091056D
:1006D00031F18630910559F1049781F52091890215
:1006E00030918A02EF01C20FD31F4C8180918B029F
:1006F00090918C02840F911D90938C0280938B02B9
:10070000C901019690938A02809389024C932681B5
:1007100030E08217930790F085E090E005C080916B
:100720008C028C9386E090E09383828307C0809153
:100730008B028C931382128281E001C080E0DF91F2
:10074000CF91089520B52E6020BD82309105D9F05B
:1007500074F40097A9F0019749F510BC84E089B9B9
:10076000109294021092930280E98AB90AC08330F1
:10077000910559F00497D1F41CB887E090E00FC0C0
:100780001AB860E013C01CB80AC010BC24E029B934
:100790001CB81AB8909396028093950206C0909365
:1007A00096028093950288E48AB961E0809197026D
:1007B00087FF0C94B30608950F931F93CF93DF9395
:1007C0001F92CDB7DEB78C016F5F7F4F49830E94C8
:1007D000C90181E0D80118968C9318971696ED916F
:1007E000FC911797108249814093970261E0842F12
:1007F0000E947A0680E090E00F90DF91CF911F91E8
:100800000F910C94A20390939D0280939C02FC0193
:100810008085882319F082E090E002C083E090E0B8
:100820000C94A20380E090E00E94A20310929D022B
:1008300010929C020895CF93DF93EC010E94120462
:1008400010929D0210929C02CE01DF91CF910C94E8
:10085000F9010F931F93CF93DF931F92CDB7DEB7AC
:100860008C016F5F7F4F49830E94C9012FE331E004
:10087000F8013183208321E030E031872087109315
:100880009B0200939A0249814093970261E0842F72
:100890000E947A0680E090E00F90DF91CF911F9147
:1008A0000F910C94A20381E090E00C94A203CF93EB
:1008B000DF93EC018FE391E09983888380E090E0FF
:1008C0000E94A20310929B0210929A02CE01DF9125
:1008D000CF910C94F9011F920F920FB60F92112431
:1008E0002F933F934F935F936F937F938F939F9338
:1008F000AF93BF93EF93FF93E0919502F09196022F
:100900003297EA30F10508F089C0E85CFF4F0C949B
:100910003D0A1BB810BC8CE089B91CB880919502C7
:1009200090919602029709F079C084E090E069C046
:100930001BB810BC84E089B981E090E090938802F4
:1009400080938702E0919C02F0919D020680F781DE
:10095000E02D80818CB986E090E053C080919C02AC
:1009600090919D02DC01ED91FC910280F381E02DDC
:1009700060918702709188029B012F5F3F4F3093F7
:1009800088022093870209958CB980918702909103
:1009900088028130924008F441C0E0919C02F091BD
:1009A0009D028085882319F082E090E02AC083E0D0
:1009B00090E00E94A20332C01BB810BC8CE089B941
:1009C0001CB888E090E01DC01BB810BC84E089B959
:1009D00041E06CE270E080919802909199020E944F
:1009E00052038AE090E00DC040E06CE270E080913C
:1009F0009802909199020E945203882379F08BE02B
:100A000090E0909396028093950208C081E090E078
:100A10000E94A2031092960210929502FF91EF910C
:100A2000BF91AF919F918F917F916F915F914F9106
:100A30003F912F910F900FBE0F901F9018951F920E
:100A40000F920FB60F9211242F933F934F935F9302
:100A50006F937F938F939F93AF93BF93EF93FF9386
:100A60008BB16CB184FF04C05C9881E090E019C048
:100A700080919302909194028530910549F18930DB
:100A8000910571F10197C9F580919A0290919B02AD
:100A9000009761F061110AC041E00E944B0285E0BD
:100AA00090E0909394028093930227C080919802E3
:100AB000909199020097E9F06C3CD9F4FC0126ADC5
:100AC00022FF17C041E00E94D10289E090E0E9CF07
:100AD00040E080919A0290919B020E944B0207C0D5
:100AE00040E080919802909199020E94D10288235F
:100AF00021F01092940210929302FF91EF91BF9116
:100B0000AF919F918F917F916F915F914F913F91A5
:100B10002F910F900FBE0F901F9018951F920F925C
:100B20000FB60F9211242F933F938F939F93AF9300
:100B3000BF9380919F029091A002A091A102B091D9
:100B4000A20230919E0226E6230F2D3728F029EECF
:100B5000230F0196A11DB11D20939E0280939F0239
:100B60009093A002A093A102B093A2028091A3024D
:100B70009091A402A091A502B091A6020196A11D98
:100B8000B11D8093A3029093A402A093A502B093F9
:100B9000A602BF91AF919F918F913F912F910F909E
:100BA0000FBE0F901F9018952FB7F89460919F0279
:100BB0007091A0028091A1029091A2022FBF08958E
:100BC0009FB7F8944091A3025091A4026091A502AE
:100BD0007091A60282B708B601FE06C08F3F21F0D1
:100BE0004F5F5F4F6F4F7F4F9FBF2227342F452F9F
:100BF000562F280F311D411D511DA3E0B0E00E946A
:100C0000430A0895CF92DF92EF92FF92CF93DF9342
:100C10006B017C010E94E005EB01C114D104E104E9
:100C2000F10489F00E94060A0E94E0056C1B7D0B0E
:100C3000683E734090F381E0C81AD108E108F108DA
:100C4000C851DC4FEACFDF91CF91FF90EF90DF905A
:100C5000CF900895789483B7826083BF83B7816013
:100C600083BF89B7826089BF1EBC8EB582608EBD8E
:100C70008EB581608EBD8FB581608FBD87B5846074
:100C800087BD87B5806487BDEAE8F0E08081826037
:100C90008083808181608083EBE8F0E080818160E7
:100CA00080831AB80895843099F028F48130A1F037
:100CB000833059F00895893099F08A30A9F0863050
:100CC000C1F487B58F7D87BD08958FB58F7702C03A
:100CD0008FB58F7D8FBD089583B78F7D83BF0895B6
:100CE00080918B008F7703C080918B008F7D8093E4
:100CF0008B000895CF93DF9390E0FC01E955FF4FFF
:100D00002491FC01E653FF4F8491882349F190E040
:100D1000880F991FFC01E750FF4FA591B4918351B3
:100D20009F4FFC01C591D4919FB7611108C0F89401
:100D30008C91209582238C93888182230AC0623013
:100D400051F4F8948C91322F309583238C938881C1
:100D5000822B888304C0F8948C91822B8C939FBF44
:100D6000DF91CF9108950F931F93CF93DF931F923D
:100D7000CDB7DEB7282F30E0F901EC57FF4F849153
:100D8000F901E955FF4F1491F901E653FF4F049122
:100D90000023C9F0882321F069830E9453066981EA
:100DA000E02FF0E0EE0FFF1FE351FF4FA591B4914C
:100DB0009FB7F8948C91611103C01095812301C0F5
:100DC000812B8C939FBF0F90DF91CF911F910F913B
:100DD0000895FC01818D228D90E0805C9F4F821BE5
:100DE00091098F7399270895FC01918D828D981731
:100DF00031F0828DE80FF11D858D90E008958FEF21
:100E00009FEF0895FC01918D828D981761F0828D7E
:100E1000DF01A80FB11D5D968C91928D9F5F9F732E
:100E2000928F90E008958FEF9FEF089580E090E01B
:100E3000892B41F080E090E0892B21F00E94000096
:100E400081110DC081E998E0892B71F080E090E07C
:100E5000892B51F00E949108811104C008950E94CD
:100E60000000F0CF0C9400000895FC01848DDF0198
:100E7000A80FB11DA35ABF4F2C91848D90E001960D
:100E80008F739927848FA689B7892C93A089B189FC
:100E90008C9180648C93938D848D981306C0028806
:100EA000F389E02D80818F7D80830895CF93DF9338
:100EB000EC01888D8823C9F0EA89FB89808185FD52
:100EC00005C0A889B9898C9186FD0FC00FB607FCB3
:100ED000F5CF808185FFF2CFA889B9898C9185FFF4
:100EE000EDCFCE010E943507E7CFDF91CF91089576
:100EF000CF92DF92FF920F931F93CF93DF931F92B6
:100F0000CDB7DEB76C0181E0D60158968C93589727
:100F10005B969C915B975C968C915C97981307C04D
:100F20005096ED91FC915197808185FD2EC0F60180
:100F3000038D10E00F5F1F4F0F731127F02EF60186
:100F4000848DF81211C00FB607FCF9CFD601509668
:100F5000ED91FC915197808185FFF1CFC6016983A6
:100F60000E9435076981EBCF838DE80FF11DE35AAD
:100F7000FF4F6083D6015B960C935B975296ED9181
:100F8000FC915397808180620CC0D6015696ED91FA
:100F9000FC91579760835096ED91FC915197808119
:100FA0008064808381E090E00F90DF91CF911F916A
:100FB0000F91FF90DF90CF900895BF92CF92DF9274
:100FC000EF92FF92CF93DF93EC016A017B01B22E87
:100FD00060E47BE48CE490E0A70196010E941B0A88
:100FE0002150310941095109569547953795279563
:100FF000E889F98982E08083211580E1380798F03B
:10100000E889F989108260EA75E286E290E0A7013A
:1010100096010E941B0A2150310941095109569538
:10102000479537952795EC85FD853083EE85FF85BF
:101030002083188EEC89FD89B082EA89FB89808142
:1010400080618083EA89FB89808188608083EA8966
:10105000FB89808180688083EA89FB8980818F7D1C
:101060008083DF91CF91FF90EF90DF90CF90BF9082
:1010700008951F920F920FB60F9211242F938F9302
:101080009F93EF93FF93E091B702F091B8028081B4
:10109000E091BD02F091BE0282FD12C0908180916C
:1010A000C0028F5F8F732091C102821751F0E091CF
:1010B000C002F0E0E955FD4F958F8093C00201C05A
:1010C0008081FF91EF919F918F912F910F900FBE93
:1010D0000F901F9018951F920F920FB60F92112428
:1010E0002F933F934F935F936F937F938F939F9330
:1010F000AF93BF93EF93FF9387EA92E00E94350787
:10110000FF91EF91BF91AF919F918F917F916F91DF
:101110005F914F913F912F910F900FBE0F901F90B5
:10112000189587EA92E00E94E90621E0892B09F4EC
:1011300020E0822F08951092AA021092A90288EE50
:1011400093E0A0E0B0E08093AB029093AC02A09358
:10115000AD02B093AE0283E591E09093A802809334
:10116000A7028CE590E09093B4028093B30220E252
:1011700030E03093B6022093B50222E230E03093A3
:10118000B8022093B70221E230E03093BA022093F4
:10119000B9029093BC028093BB0283E290E09093EB
:1011A000BE028093BD021092C0021092C102109242
:1011B000C2021092C3020895CF92DF92EF92FF9283
:1011C0000F931F93CF93DF936C017A01EB01E60E2F
:1011D000F71E00E010E0CE15DF0561F06991D60141
:1011E000ED91FC910190F081E02DC6010995080F69
:1011F000191FF1CFC801DF91CF911F910F91FF907F
:10120000EF90DF90CF9008956115710581F0DB01BB
:101210000D900020E9F7AD0141505109461B570BD5
:10122000DC01ED91FC910280F381E02D099480E0D6
:1012300090E008950C9404096FE571E00C940409A2
:101240000F931F93CF93DF93EC010E9404098C014D
:10125000CE010E941C09800F911FDF91CF911F9139
:101260000F9108958F929F92AF92BF92CF92DF928B
:10127000EF92FF920F931F93CF93DF93CDB7DEB71B
:10128000A1970FB6F894DEBF0FBECDBF7C01C42E70
:10129000E52FCB01D22E19A221E02D1510F02AE066
:1012A000D22E8E010F5D1F4F8D2C912CA12CB12CB5
:1012B0006C2D7E2FA50194010E941B0A8C2DD29EBD
:1012C00080191124015011098A3014F4805D01C085
:1012D000895CF8018083211531054105510521F014
:1012E000C22EE32FCA01E4CFB801C7010E9404094E
:1012F000A1960FB6F894DEBF0FBECDBFDF91CF91A0
:101300001F910F91FF90EF90DF90CF90BF90AF9023
:101310009F908F9008952115310541F4DC01ED91E6
:10132000FC910190F081E02D642F09940C94320916
:101330009A01462F50E060E070E00C948B090F9307
:101340001F93CF93DF93EC010E94D40568877987C0
:101350008A879B87E881F9810680F781E02DCE019D
:10136000099597FF15C00E94D405088519852A851F
:101370003B85601B710B820B930B0C811D812E81B1
:101380003F81601771078207930720F38FEF9FEF6C
:10139000DF91CF911F910F910895FC0144835583F4
:1013A000668377830895CF92DF92EF92FF920F9337
:1013B0001F93CF93DF937C016A01EB0100E010E003
:1013C0000C151D0549F0C7010E949F0997FD04C037
:1013D00089930F5F1F4FF4CFC801DF91CF911F9109
:1013E0000F91FF90EF90DF90CF90089508950E94A5
:1013F0002A060E94F6090E946301C6E1D7E00E9416
:1014000098012097E1F30E941607F9CF0895AA1BCF
:10141000BB1B51E107C0AA1FBB1FA617B70710F0DF
:10142000A61BB70B881F991F5A95A9F78095909511
:10143000BC01CD010895A1E21A2EAA1BBB1BFD0120
:101440000DC0AA1FBB1FEE1FFF1FA217B307E407A3
:10145000F50720F0A21BB30BE40BF50B661F771FFB
:10146000881F991F1A9469F76095709580959095DB
:101470009B01AC01BD01CF010895EE0FFF1F059048
:10148000F491E02D09940E944E0AA59F900DB49FFF
:10149000900DA49F800D911D11240895A29FB0016D
:1014A000B39FC001A39F700D811D1124911DB29F98
:1014B000700D811D1124911D0895CF93DF9382300B
:1014C000910510F482E090E0E0914603F09147032B
:1014D00020E030E0A0E0B0E0309739F14081518168
:1014E00048175907B8F04817590771F4828193815A
:1014F000109729F013969C938E9312972CC090937B
:1015000047038093460327C02115310531F0421768
:10151000530718F0A901DB0101C0EF019A01BD01D9
:10152000DF010280F381E02DD7CF21153105F9F0DD
:10153000281B390B2430310580F48A819B81611589
:10154000710521F0FB019383828304C090934703CC
:1015500080934603FE01329644C0FE01E20FF31F62
:101560008193919322503109398328833AC0209185
:10157000440330914503232B41F420910201309123
:1015800003013093450320934403209100013091DF
:1015900001012115310541F42DB73EB740910401F9
:1015A00050910501241B350BE0914403F091450354
:1015B000E217F307A0F42E1B3F0B2817390778F02A
:1015C000AC014E5F5F4F2417350748F04E0F5F1F89
:1015D00050934503409344038193919302C0E0E00C
:1015E000F0E0CF01DF91CF910895CF93DF93009783
:1015F00009F487C0FC01329713821282C09146031E
:10160000D0914703209781F420813181280F391F21
:1016100080914403909145038217930779F5F093E5
:101620004503E09344036DC0DE0120E030E0AE17D7
:10163000BF0750F412964D915C9113979D0141158F
:10164000510509F1DA01F3CFB383A28340815181BF
:10165000840F951F8A179B0771F48D919C911197A8
:10166000840F951F02969183808312968D919C9191
:101670001397938382832115310529F4F09347034F
:10168000E09346033EC0D9011396FC93EE93129764
:101690004D915D91A40FB51FEA17FB0779F4808186
:1016A0009181840F951F0296D90111969C938E9378
:1016B0008281938113969C938E931297E0E0F0E0E1
:1016C0008A819B81009719F0FE01EC01F9CFCE01D0
:1016D000029628813981820F931F20914403309113
:1016E00045032817390769F4309729F41092470306
:1016F0001092460302C013821282D0934503C09316
:101700004403DF91CF910895FC0188279927E8943D
:1017100021912032E9F3293010F02E30C8F32B321A
:1017200041F02D3239F4689404C00E94D50B820F29
:10173000911D219120532A30C0F31EF4909581957C
:101740009F4F089540E751E00E94AE0B0895DC01E1
:1017500001C06D9341505040E0F70895FA01A19106
:10176000B081009719F41097E1F0CD01DC01CD01B3
:101770000D90002011F4C00113C0FB012191222320
:1017800019F02015D9F7F3CFFB012191201519F499
:101790001E92119606C02223C1F70D900020A1F7DA
:1017A000D001FA01A193B08308957AE0979F902D1C
:1017B000879F802D910D1124089511E0CAE0D1E09A
:1017C00004C0FE010E943F0A2296CC30D107C9F71F
:0417D000F894FFCFBB
:1017D40000004803800000012C0020002600485926
:1017E4002050492049276D2074686520444D585F76
:1017F40053657269616C2048616E646C6572205631
:10180400657273696F6E20332E310000000000A3EF
:1018140001A701B90100000000A301A701B901005B
:101824000000007807DC08E9060207F40656070DF5
:101834000A006E616E00696E66006F7666002E00A7
:103E00001F92CDB7DEB711248FEF94E09EBF8DBF18
:103E100084B714BE982F9D7009F0CAD085E08EBD7E
:103E200082E08BB988E18AB986E080BD85E189B9F5
:103E30008EE0ABD0B89A26E08CE39BEF50E841E0EF
:103E40009DBD8CBD58BF08B607FEFDCF38B33427E3
:103E500038BBA8952150A1F7812C912C93E0F92E25
:103E6000EE24E39425E0D22E31E1C32E87D08134B5
:103E700079F484D089838DD08981823811F482E0ED
:103E800005C0813811F486E001C083E073D06FC0B3
:103E9000823411F484E103C0853419F485E081D0C3
:103EA00066C0853541F46AD0882E68D0912C982A56
:103EB000880C991C5BC0863521F484E072D080E0C8
:103EC000E5CF843609F036C059D058D0B82E56D038
:103ED000A82E00E011E052D0F80181938F01BE12AC
:103EE000FACF57D0F5E4AF1201C0FFCFF401F7BE0F
:103EF000E89507B600FCFDCFB401A0E0B1E02C913D
:103F00001296AD0141505109FA01808130E0382B01
:103F1000FB010901E7BEE89511246E5F7F4FBA12DD
:103F2000EECFF401D7BEE89507B600FCFDCFC7BEC3
:103F3000E8951DC0843769F421D020D0B82E1ED05A
:103F400028D08401F80185918F0114D0BA94D1F75B
:103F50000EC0853739F41DD08EE10CD084E90AD02B
:103F600084E094CF813511F488E00FD012D080E145
:103F700001D07CCF5D9BFECF8CB908955F9BFECFB7
:103F80005C9901C0A8958CB1089598E191BD81BD5F
:103F90000895F4DF803219F088E0F7DFFFCF84E185
:103FA000E9CFCF93C82FEADFC150E9F7CF91F1CF26
:0C3FB000282E80E0EADFE0E0FF27099403
:023FFE000206B9
:0400000300003E00BB
:00000001FF
