:100000000C947C000C94A4000C94A4000C94A40008
:100010000C94A4000C94A4000C94A4000C94A400D0
:100020000C94A4000C94A4000C94A4000C94A400C0
:100030000C94A4000C94A4000C94A4000C94A400B0
:100040000C94A4000C94B7060C94A4000C94A40087
:100050000C94EA040C94A4000C941C050C94A400C9
:100060000C94A4000C94A4000C94A4000C94A40080
:10007000000000000009030001070A000000000062
:10008000000000000000000000000000000004006C
:1000900000000001020408401020800102102040EE
:1000A00080010204080804010204081020408001B5
:1000B0000204102040800404040404040404020226
:1000C000020202020101010102020303030303030E
:1000D00003030505050101010100003B003800355F
:1000E000003200270000003A0037003400310026BB
:1000F00000006C014C05800111241FBECFEFD4E03D
:10010000DEBFCDBF11E0A0E0B1E0EEECF1E102C056
:1001100005900D92A037B107D9F723E0A0E7B1E031
:1001200001C01D92AA33B207E1F710E0C6EFD0E09C
:1001300004C02297FE010E945607C23FD107C9F7AB
:100140000E94A8060C94DA080C94000082E791E063
:100150000E94EC0261E070E082E791E00E943702C9
:100160008EE791E00E949C0220E040E052E061E0D6
:1001700070E08EE791E00C942A02CF93DF9360E069
:1001800082E00E946403C1E0D0E08091060190917A
:1001900007018C179D07A0F0BE0182E791E00E9445
:1001A00030024AE050E0682F80E992E00E94490660
:1001B00068E071E080E992E00E94CB052196E5CFEE
:1001C0006AE071E080E992E0DF91CF910C94D10573
:1001D0000F931F93CF93DF9361E082E00E9464034B
:1001E00007E811E0C0E0D0E0F80141918F012196CD
:1001F000BE018EE791E00E942402C130F1E0DF07EA
:1002000099F7DF91CF911F910F910895EF92FF928F
:100210000F931F93CF93DF93CDB7DEB7EDB6FEB646
:100220004091060150910701440F551F440F551F7F
:10023000CA0101962DB73EB7281B390B0FB6F894AB
:100240003EBF0FBE2DBF0DB71EB70F5F1F4FB801CA
:1002500080E992E00E948406F801E80FF11D108207
:100260006CE071E0C8010E949F0807E811E0009768
:1002700061F00E948108F80181938F016CE071E0C8
:1002800080E090E00E949F08F2CF0E94E8000FB645
:10029000F894FEBE0FBEEDBEDF91CF911F910F917E
:1002A000FF90EF90089526E040E052EC61E070E0AE
:1002B00080E992E00E948E044AEF50E060E070E036
:1002C00080E992E00E947E060E94A6006EE071E046
:1002D00080E992E00C94D1056091060170910701CC
:1002E00042E050E08EE791E00E94750260910601C5
:1002F000709107014FEF5FEF82E791E00C94C2022B
:1003000082E791E00E94F0028EE791E00C94B40243
:1003100080E992E00E949A031816190614F40C94CE
:1003200006010C94BD00FC01848195810895DC01D7
:1003300014962D913C9115976217730740F4169609
:10034000ED91FC911797E60FF71F8081089580E0EB
:100350000895DC0114962D913C911597621773074F
:1003600038F41696ED91FC911797E60FF71F40832E
:1003700008950F931F93CF93DF93EC018B0189E4D2
:1003800091E09983888381E090E00E945A079B83E3
:100390008A83C80102978115924078F4C8010E94AF
:1003A0005A079F838E83009751F0A80160E070E0A8
:1003B0000E94A4081D830C8302C01D821C828A81B6
:1003C0009B8101969B838A83DF91CF911F910F912F
:1003D0000895CF93DF93EC0189E491E099838883BA
:1003E000EA81FB8180818150808381110CC08E81E4
:1003F0009F81009711F00E94F2078A819B81DF9113
:10040000CF910C94F207DF91CF910895CF93DF93B2
:10041000FB01EC01AC81BD816A177B0790F44A17A0
:100420005B0778F46417750760F4461B570B622F5F
:1004300070E08E819F818E0F9F1FDF91CF910C9472
:10044000A408DF91CF9108956115710511F00C9406
:10045000A90108956115710511F00C940602089523
:10046000DC01ED91FC910280F381E02D0994FC0107
:1004700071876087089520B52E6020BD8230910578
:10048000D9F074F40097A9F0019749F510BC84E005
:1004900089B9109288021092870280E98AB90AC04D
:1004A0008330910559F00497D1F41CB887E090E0AF
:1004B0000FC01AB860E013C01CB80AC010BC24E01A
:1004C00029B91CB81AB890938A028093890206C091
:1004D00090938A028093890288E48AB961E08091CE
:1004E0008B0287FF0C94640308950F931F93CF939F
:1004F000DF931F92CDB7DEB78C016F5F7F4F4983CB
:100500000E94B90181E0D80118968C93189716962D
:10051000ED91FC9117971082498140938B0261E025
:10052000842F0E942B0380E090E00F90DF91CF9109
:100530001F910F910C943B0290938F0280938E0237
:10054000FC018085882319F082E090E002C083E0FE
:1005500090E00C943B0280E090E00E943B021092FD
:100560008F0210928E020895CF93DF93EC010E94C8
:10057000AB0210928F0210928E02CE01DF91CF91CA
:100580000C94E9010F931F93CF93DF931F92CDB784
:10059000DEB78C016F5F7F4F49830E94B9012FE363
:1005A00031E0F8013183208321E030E0318720877A
:1005B00010938D0200938C02498140938B0261E07D
:1005C000842F0E942B0380E090E00F90DF91CF9169
:1005D0001F910F910C943B0281E090E00C943B0240
:1005E000CF93DF93EC018FE391E09983888380E0E0
:1005F00090E00E943B0210928D0210928C02CE017C
:10060000DF91CF910C94E901843099F028F4813086
:10061000A1F0833059F00895893099F08A30A9F01B
:100620008630C1F487B58F7D87BD08958FB58F77EC
:1006300002C08FB58F7D8FBD089583B78F7D83BF37
:10064000089580918B008F7703C080918B008F7D00
:1006500080938B000895CF93DF9390E0FC01ED56DB
:10066000FF4F2491FC01EA54FF4F8491882349F104
:1006700090E0880F991FFC01EB51FF4FA591B491B9
:1006800087529F4FFC01C591D4919FB7611108C05B
:10069000F8948C91209582238C93888182230AC0C0
:1006A000623051F4F8948C91322F309583238C93DF
:1006B0008881822B888304C0F8948C91822B8C9340
:1006C0009FBFDF91CF9108950F931F93CF93DF9337
:1006D0001F92CDB7DEB7282F30E0F901E059FF4F68
:1006E0008491F901ED56FF4F1491F901EA54FF4F3F
:1006F00004910023C9F0882321F069830E94040338
:100700006981E02FF0E0EE0FFF1FE752FF4FA59148
:10071000B4919FB7F8948C91611103C01095812317
:1007200001C0812B8C939FBF0F90DF91CF911F91C0
:100730000F910895FC01818D228D90E0805C9F4F88
:10074000821B91098F7399270895FC01918D828DE9
:10075000981731F0828DE80FF11D858D90E0089596
:100760008FEF9FEF0895FC01918D828D981761F0B6
:10077000828DDF01A80FB11D5D968C91928D9F5FD8
:100780009F73928F90E008958FEF9FEF089580E020
:1007900090E0892B41F080E090E0892B21F00E94CD
:1007A000000081110DC082E495E0892B71F080E09A
:1007B00090E0892B51F00E944205811104C00895F8
:1007C0000E940000F0CF0C9400000895FC01848D7D
:1007D000DF01A80FB11DA35ABF4F2C91848D90E06B
:1007E00001968F739927848FA689B7892C93A08946
:1007F000B1898C9180648C93938D848D981306C0FD
:100800000288F389E02D80818F7D80830895CF93C6
:10081000DF93EC01888D8823C9F0EA89FB89808108
:1008200085FD05C0A889B9898C9186FD0FC00FB6DA
:1008300007FCF5CF808185FFF2CFA889B9898C911B
:1008400085FFEDCFCE010E94E603E7CFDF91CF9188
:100850000895CF92DF92FF920F931F93CF93DF9370
:100860001F92CDB7DEB76C0181E0D60158968C930C
:1008700058975B969C915B975C968C915C979813CC
:1008800007C05096ED91FC915197808185FD2EC057
:10089000F601038D10E00F5F1F4F0F731127F02E2D
:1008A000F601848DF81211C00FB607FCF9CFD601FE
:1008B0005096ED91FC915197808185FFF1CFC60153
:1008C00069830E94E6036981EBCF838DE80FF11DF8
:1008D000E35AFF4F6083D6015B960C935B97529669
:1008E000ED91FC915397808180620CC0D6015696A1
:1008F000ED91FC91579760835096ED91FC91519743
:1009000080818064808381E090E00F90DF91CF91BF
:100910001F910F91FF90DF90CF900895BF92CF92DB
:10092000DF92EF92FF92CF93DF93EC016A017B019C
:10093000B22E60E47BE48CE490E0A70196010E9473
:10094000320721503109410951095695479537958C
:100950002795E889F98982E08083211580E13807AD
:1009600098F0E889F989108260EA75E286E290E001
:10097000A70196010E94320721503109410951090E
:100980005695479537952795EC85FD853083EE85FF
:10099000FF852083188EEC89FD89B082EA89FB8966
:1009A000808180618083EA89FB898081886080837F
:1009B000EA89FB89808180688083EA89FB8980815C
:1009C0008F7D8083DF91CF91FF90EF90DF90CF906C
:1009D000BF9008951F920F920FB60F9211242F937C
:1009E0008F939F93EF93FF93E091A002F091A10268
:1009F0008081E091A602F091A70282FD12C0908151
:100A00008091A9028F5F8F732091AA02821751F003
:100A1000E091A902F0E0E057FD4F958F8093A90285
:100A200001C08081FF91EF919F918F912F910F9045
:100A30000FBE0F901F9018951F920F920FB60F9236
:100A400011242F933F934F935F936F937F938F93D3
:100A50009F93AF93BF93EF93FF9380E992E00E943F
:100A6000E603FF91EF91BF91AF919F918F917F919D
:100A70006F915F914F913F912F910F900FBE0F900B
:100A80001F90189580E992E00E949A0321E0892B3B
:100A900009F420E0822F089510929302109292029E
:100AA00088EE93E0A0E0B0E08093940290939502EA
:100AB000A0939602B093970283E591E09093910200
:100AC000809390028CE590E090939D0280939C022D
:100AD00020E230E030939F0220939E0222E230E039
:100AE0003093A1022093A00221E230E03093A302D0
:100AF0002093A2029093A5028093A40283E290E047
:100B00009093A7028093A6021092A9021092AA02C3
:100B10001092AB021092AC020895CF92DF92EF9246
:100B2000FF920F931F93CF93DF936C017A01EB0138
:100B3000E60EF71E00E010E0CE15DF0561F06991CA
:100B4000D601ED91FC910190F081E02DC60109954F
:100B5000080F191FF1CFC801DF91CF911F910F919D
:100B6000FF90EF90DF90CF9008956115710581F0AF
:100B7000DB010D900020E9F7AD0141505109461B02
:100B8000570BDC01ED91FC910280F381E02D09947B
:100B900080E090E008950C94B5056FE571E00C9449
:100BA000B5050F931F93CF93DF93EC010E94B5051A
:100BB0008C01CE010E94CD05800F911FDF91CF9156
:100BC0001F910F9108958F929F92AF92BF92CF92F3
:100BD000DF92EF92FF920F931F93CF93DF93CDB7E6
:100BE000DEB7A1970FB6F894DEBF0FBECDBF7C0174
:100BF000C42EE52FCB01D22E19A221E02D1510F025
:100C00002AE0D22E8E010F5D1F4F8D2C912CA12C2E
:100C1000B12C6C2D7E2FA50194010E9432078C2DE2
:100C2000D29E80191124015011098A3014F4805D7C
:100C300001C0895CF801808321153105410551050A
:100C400021F0C22EE32FCA01E4CFB801C7010E94F0
:100C5000B505A1960FB6F894DEBF0FBECDBFDF91EC
:100C6000CF911F910F91FF90EF90DF90CF90BF90A9
:100C7000AF909F908F9008952115310541F4DC01CC
:100C8000ED91FC910190F081E02D642F09940C947A
:100C9000E3059A01462F50E060E070E00C943C06BA
:100CA0000F931F93CF93DF93EC010E94FD0668879B
:100CB00079878A879B87E881F9810680F781E02D13
:100CC000CE01099597FF15C00E94FD06088519857C
:100CD0002A853B85601B710B820B930B0C811D8158
:100CE0002E813F81601771078207930720F38FEFF2
:100CF0009FEFDF91CF911F910F910895FC014483E5
:100D00005583668377830895CF92DF92EF92FF92A7
:100D10000F931F93CF93DF937C016A01EB0100E0F7
:100D200010E00C151D0549F0C7010E94500697FD03
:100D300004C089930F5F1F4FF4CFC801DF91CF919B
:100D40001F910F91FF90EF90DF90CF90089508953D
:100D50000E9409070E94A7060E945301C7ECD3E036
:100D60000E9488012097E1F30E94C703F9CF1F92E8
:100D70000F920FB60F9211242F933F938F939F934F
:100D8000AF93BF9380912E0390912F03A0913003D6
:100D9000B091310330912D0326E6230F2D3728F033
:100DA00029EE230F0196A11DB11D20932D038093E1
:100DB0002E0390932F03A0933003B09331038091BF
:100DC000320390913303A0913403B091350301961F
:100DD000A11DB11D8093320390933303A09334037C
:100DE000B0933503BF91AF919F918F913F912F9118
:100DF0000F900FBE0F901F9018952FB7F894609129
:100E00002E0370912F0380913003909131032FBFF7
:100E10000895789483B7826083BF83B7816083BF6E
:100E200089B7826089BF1EBC8EB582608EBD8EB5CB
:100E300081608EBD8FB581608FBD87B5846087BDB1
:100E400087B5806487BDEAE8F0E0808182608083B6
:100E5000808181608083EBE8F0E080818160808325
:100E60001AB80895A1E21A2EAA1BBB1BFD010DC0E2
:100E7000AA1FBB1FEE1FFF1FA217B307E407F5074A
:100E800020F0A21BB30BE40BF50B661F771F881F26
:100E9000991F1A9469F760957095809590959B01BC
:100EA000AC01BD01CF010895EE0FFF1F0590F49135
:100EB000E02D0994CF93DF938230910510F482E006
:100EC00090E0E0913803F091390320E030E0A0E0B9
:100ED000B0E0309739F14081518148175907B8F097
:100EE0004817590771F482819381109729F013965E
:100EF0009C938E9312972CC0909339038093380360
:100F000027C02115310531F04217530718F0A90108
:100F1000DB0101C0EF019A01BD01DF010280F38115
:100F2000E02DD7CF21153105F9F0281B390B2430DE
:100F3000310580F48A819B816115710521F0FB01E7
:100F40009383828304C09093390380933803FE0116
:100F5000329644C0FE01E20FF31F81939193225019
:100F60003109398328833AC0209136033091370301
:100F7000232B41F420910201309103013093370378
:100F80002093360320910001309101012115310594
:100F900041F42DB73EB74091040150910501241B47
:100FA000350BE0913603F0913703E217F307A0F415
:100FB0002E1B3F0B2817390778F0AC014E5F5F4FAF
:100FC0002417350748F04E0F5F1F509337034093A7
:100FD00036038193919302C0E0E0F0E0CF01DF910E
:100FE000CF910895CF93DF93009709F487C0FC0158
:100FF000329713821282C0913803D091390320971F
:1010000081F420813181280F391F8091360390911E
:1010100037038217930779F5F0933703E09336038C
:101020006DC0DE0120E030E0AE17BF0750F412962D
:101030004D915C9113979D014115510509F1DA011C
:10104000F3CFB383A28340815181840F951F8A1708
:101050009B0771F48D919C911197840F951F0296B7
:101060009183808312968D919C91139793838283B1
:101070002115310529F4F0933903E09338033EC07C
:10108000D9011396FC93EE9312974D915D91A40FA5
:10109000B51FEA17FB0779F480819181840F951FB2
:1010A0000296D90111969C938E9382819381139617
:1010B0009C938E931297E0E0F0E08A819B810097E9
:1010C00019F0FE01EC01F9CFCE0102962881398199
:1010D000820F931F20913603309137032817390769
:1010E00069F4309729F4109239031092380302C042
:1010F00013821282D0933703C0933603DF91CF91CE
:101100000895FC0188279927E89421912032E9F37A
:10111000293010F02E30C8F32B3241F02D3239F443
:10112000689404C00E94D208820F911D219120531F
:101130002A30C0F31EF4909581959F4F089540E7A3
:1011400051E00E94AB080895DC0101C06D9341504D
:101150005040E0F70895FA01A191B081009719F489
:101160001097E1F0CD01DC01CD010D90002011F4CC
:10117000C00113C0FB012191222319F02015D9F7DA
:10118000F3CFFB012191201519F41E92119606C090
:101190002223C1F70D900020A1F7D001FA01A193FD
:1011A000B08308957AE0979F902D879F802D910DB1
:1011B0001124089510E0C6EFD0E004C0FE010E94A3
:0E11C00056072296C83FD107C9F7F894FFCF13
:1011CE0000003A03800000012C0020002600485940
:1011DE002050492049276D2074686520444D585F82
:1011EE0053657269616C2048616E646C657220563D
:1011FE00657273696F6E20332E310000000000930C
:10120E00019701A9010000000093019701A90100B7
:10121E0000000029048D059A03B303A50307040DEE
:10122E000A006E616E00696E66006F7666002E00B3
:00000001FF
