:100000000C943A000C9462000C9462000C94620010
:100010000C9462000C9462000C9462000C946200D8
:100020000C9462000C9462000C9462000C946200C8
:100030000C9462000C9462000C9462000C946200B8
:100040000C9462000C94AA000C9462000C94D102EF
:100050000C9474030C9403030C94A6030C94620098
:100060000C9462000C9462000C9462000C94620088
:100070003303D60311241FBECFEFD4E0DEBFCDBFC4
:1000800011E0A0E0B1E0E8E5F9E002C005900D92D2
:10009000A63BB107D9F722E0A6EBB1E001C01D9263
:1000A000A93FB207E1F710E0C4E7D0E004C022970F
:1000B000FE010E94A604C037D107C9F70E9472044E
:1000C0000C94AA040C94000026E040E052EC61E09D
:1000D00070E08CE592E00E946F024AEF50E060E031
:1000E00070E08CE592E00E946B0466E071E08CE5C4
:1000F00092E00E94590426E040E052EC61E070E09A
:100100008FEB91E00E946F024AEF50E060E070E0F8
:100110008FEB91E00E946B046CE371E08FEB91E058
:100120000C94590462E771E08CE592E00E94590456
:1001300060ED77E080E090E00E94180163E871E0F4
:100140008FEB91E00E94590460ED77E080E090E051
:100150000C9418011F920F920FB60F9211242F9337
:100160003F938F939F93AF93BF938091B7019091EB
:10017000B801A091B901B091BA013091B60123E064
:10018000230F2D3720F40196A11DB11D05C026E8CF
:10019000230F0296A11DB11D2093B6018093B701D4
:1001A0009093B801A093B901B093BA018091BB01BB
:1001B0009091BC01A091BD01B091BE010196A11D1D
:1001C000B11D8093BB019093BC01A093BD01B0937E
:1001D000BE01BF91AF919F918F913F912F910F9051
:1001E0000FBE0F901F9018953FB7F8948091BB01F8
:1001F0009091BC01A091BD01B091BE0122B708B69B
:1002000001FE05C02F3F19F00196A11DB11D3FBF92
:100210006627782F892F9A2F620F711D811D911DDE
:1002200042E0660F771F881F991F4A95D1F70895FE
:100230008F929F92AF92BF92CF92DF92EF92FF92F6
:100240006B017C010E94F4004B015C01C114D104DC
:10025000E104F104F1F00E9481040E94F4006819A5
:1002600079098A099B09683E73408105910570F3FD
:1002700021E0C21AD108E108F10888EE880E83E077
:10028000981EA11CB11CC114D104E104F10429F78A
:10029000DDCFFF90EF90DF90CF90BF90AF909F9019
:1002A0008F900895789483B7826083BF83B781600D
:1002B00083BF89B7826089BF1EBC8EB582608EBD48
:1002C0008EB581608EBD8FB581608FBD87B584602E
:1002D00087BD87B5806487BDEAE8F0E080818260F1
:1002E0008083808181608083EBE8F0E080818160A1
:1002F00080831AB80895FC01818D228D90E0805C86
:100300009F4F821B91098F7399270895FC01918D4E
:10031000828D981731F0828DE80FF11D858D90E068
:1003200008958FEF9FEF0895FC01918D828D9817AE
:1003300061F0828DDF01A80FB11D5D968C91928DC9
:100340009F5F9F73928F90E008958FEF9FEF0895C6
:1003500089E293E0892B41F080E090E0892B21F045
:100360000E94290381110DC08CEC93E0892B71F060
:1003700080E090E0892B51F00E94CC03811104C0F1
:1003800008950E940000F0CF0C9400000895FC0135
:10039000848DDF01A80FB11DA35ABF4F2C91848D0E
:1003A00090E001968F739927848FA689B7892C9343
:1003B000A089B1898C9180648C93938D848D9813DE
:1003C00006C00288F389E02D80818F7D80830895A7
:1003D000CF93DF93EC01888D8823C9F0EA89FB89EC
:1003E000808185FD05C0A889B9898C9186FD0FC0E3
:1003F0000FB607FCF5CF808185FFF2CFA889B989B8
:100400008C9185FFEDCFCE010E94C701E7CFDF9130
:10041000CF910895CF92DF92FF920F931F93CF93C6
:10042000DF931F92CDB7DEB76C0181E0D6015896FD
:100430008C9358975B969C915B975C968C915C979C
:10044000981307C05096ED91FC915197808185FDDE
:100450002EC0F601038D10E00F5F1F4F0F731127A1
:10046000F02EF601848DF81211C00FB607FCF9CFFB
:10047000D6015096ED91FC915197808185FFF1CF87
:10048000C60169830E94C7016981EBCF838DE80FA4
:10049000F11DE35AFF4F6083D6015B960C935B9787
:1004A0005296ED91FC915397808180620CC0D601E9
:1004B0005696ED91FC91579760835096ED91FC9183
:1004C000519780818064808381E090E00F90DF917C
:1004D000CF911F910F91FF90DF90CF900895BF9221
:1004E000CF92DF92EF92FF92CF93DF93EC016A01FC
:1004F0007B01B22EE889F98982E08083411581EE83
:10050000580761057105A1F060E079E08DE390E0A6
:10051000A70196010E948204215031094109510925
:100520005695479537952795211580E1380798F01E
:10053000E889F989108260E874E88EE190E0A7010B
:1005400096010E94820421503109410951095695B2
:10055000479537952795EC85FD853083EE85FF859A
:100560002083188EEC89FD89B082EA89FB8980811D
:1005700080618083EA89FB89808188608083EA8941
:10058000FB89808180688083EA89FB8980818F7DF7
:100590008083DF91CF91FF90EF90DF90CF90BF905D
:1005A00008951F920F920FB60F9211242F938F93DD
:1005B0009F93EF93FF93E091CF01F091D001808161
:1005C000E091D501F091D60182FD12C09081809119
:1005D000D8018F5F8F732091D901821751F0E0917C
:1005E000D801F0E0E154FE4F958F8093D80101C00F
:1005F0008081FF91EF919F918F912F910F900FBE6E
:100600000F901F9018951F920F920FB60F92112402
:100610002F933F934F935F936F937F938F939F930A
:10062000AF93BF93EF93FF938FEB91E00E94C701CD
:10063000FF91EF91BF91AF919F918F917F916F91BA
:100640005F914F913F912F910F900FBE0F901F9090
:1006500018958FEB91E00E947B0121E0892B09F432
:1006600020E0822F08951092C2011092C10188EEFD
:1006700093E0A0E0B0E08093C3019093C401A09305
:10068000C501B093C60188E991E09093C0018093C1
:10069000BF0180E490E09093CC018093CB0129E2EC
:1006A00030E03093CE012093CD012BE230E0309347
:1006B000D0012093CF012AE230E03093D201209381
:1006C000D1019093D4018093D3018CE290E0909378
:1006D000D6018093D5011092D8011092D9011092C1
:1006E000DA011092DB0108951F920F920FB60F925C
:1006F00011242F938F939F93EF93FF93E0916C02BC
:10070000F0916D028081E0917202F091730282FD9E
:1007100012C09081809175028F5F8F732091760255
:10072000821751F0E0917502F0E0E45AFD4F958F89
:100730008093750201C08081FF91EF919F918F910D
:100740002F910F900FBE0F901F9018951F920F9230
:100750000FB60F9211242F933F934F935F936F9394
:100760007F938F939F93AF93BF93EF93FF938CE50A
:1007700092E00E94C701FF91EF91BF91AF919F91CD
:100780008F917F916F915F914F913F912F910F903A
:100790000FBE0F901F9018958CE592E00E947B0190
:1007A00021E0892B09F420E0822F089510925F0246
:1007B00010925E0288EE93E0A0E0B0E080936002C9
:1007C00090936102A0936202B093630288E991E082
:1007D00090935D0280935C028CE590E090936902B7
:1007E0008093680220E230E030936B0220936A022B
:1007F00022E230E030936D0220936C0221E230E07F
:1008000030936F0220936E02909371028093700276
:1008100083E290E0909373028093720210927502CB
:100820001092760210927702109278020895CF9279
:10083000DF92EF92FF920F931F93CF93DF937C0190
:100840006A01EB0100E010E00C151D0571F06991E3
:10085000D701ED91FC910190F081E02DC701099540
:10086000892B19F00F5F1F4FEFCFC801DF91CF9198
:100870001F910F91FF90EF90DF90CF900895611539
:10088000710581F0DB010D900020E9F7AD014150C9
:100890005109461B570BDC01ED91FC910280F3815D
:1008A000E02D099480E090E0089564EA71E00C94F2
:1008B0003F040F931F93CF93DF93EC010E943F04FB
:1008C0008C01CE010E945504800F911FDF91CF91C2
:1008D0001F910F910895FC014483558366837783AC
:1008E000089508950E9452010E9471040E946400BC
:1008F000C8EAD1E00E9492002097E1F30E94A8018B
:10090000F9CF0895A1E21A2EAA1BBB1BFD010DC051
:10091000AA1FBB1FEE1FFF1FA217B307E407F507AF
:1009200020F0A21BB30BE40BF50B661F771F881F8B
:10093000991F1A9469F760957095809590959B0121
:10094000AC01BD01CF010895EE0FFF1F0590F4919A
:08095000E02D0994F894FFCF9B
:100958000000F902800048592050492049276D209D
:1009680074686520444D585F53657269616C20480E
:10097800616E646C65722056657273696F6E2033A0
:100988002E312053455249414C20310048592050BE
:10099800492049276D2074686520444D585F536588
:1009A8007269616C2048616E646C6572205665726C
:1009B80073696F6E20332E312053455249414C20C4
:1009C800300054455354206F6E2053455249414CD2
:1009D80020310054455354206F6E205345524941ED
:1009E8004C203000000000000A0217047B0194012B
:1009F8008601E8010D0A006E616E00696E66006F7F
:060A08007666002E0000DE
:00000001FF
